:020000040800F2
:1000000050060020490100086B0A00085F0900083B
:10001000290A0008CB070008E90F000800000000CB
:10002000000000000000000000000000730C000849
:100030005D09000800000000710C00081D0E00089A
:100040006301000863010008630100086301000800
:1000500063010008630100086301000863010008F0
:1000600063010008630100086301000863010008E0
:1000700063010008630100086301000863010008D0
:1000800063010008630100086301000863010008C0
:1000900063010008630100086301000863010008B0
:1000A00063010008630100086301000863010008A0
:1000B0006301000863010008630100086301000890
:1000C0006301000863010008630100086301000880
:1000D000630100087D0F0008630100086301000848
:1000E0006301000863010008630100086301000860
:1000F0006301000863010008630100086301000850
:10010000630100086301000863010008630100083F
:10011000630100086301000863010008630100082F
:10012000630100086301000863010008630100081F
:10013000DFF810D000F0C8FA00480047FD2500089D
:10014000AFF300805006002006488047064800476D
:10015000FEE7FEE7FEE7FEE7FEE7FEE7FEE7FEE777
:10016000FEE7FEE7350E0008310100082DE9F05FDB
:100170000546002092469B46884606468146402416
:100180001BE0284641464746224600F074F8534695
:100190005A46C01A914110D311461846224600F023
:1001A0005BF82D1A67EB01084F462246012000211B
:1001B00000F052F817EB00094E41201EA4F1010493
:1001C000DFDC484631462A464346BDE8F09F00F052
:1001D000004230F000400AD0C10D01F56071C0F35B
:1001E000160042EA0151C20840071143704700203F
:1001F0000146704701F0004330B421F0004150EA5D
:10020000010206D00A0DA2F56072C1F31301002AA3
:1002100002DC30BC00207047440F44EAC104C10036
:10022000E01830BC00EBC25000F035B830B50B46DA
:10023000014600202022012409E021FA02F59D4216
:1002400005D303FA02F5491B04FA02F52844151EEA
:10025000A2F10102F1DC30BD202A04DB203A00FAD1
:1002600002F1002070479140C2F1200320FA03F30D
:10027000194390407047202A04DB203A21FA02F00B
:100280000021704721FA02F3D040C2F120029140D0
:100290000843194670470029A8BF7047401C490011
:1002A00008BF20F00100704710B4B0FA80FC00FADB
:1002B0000CF050EA010404BF10BC704749B1CCF106
:1002C000200421FA04F411FA0CF118BF0121214392
:1002D0000843A3EB0C01CB1D4FEA00614FEA10204D
:1002E00042BF002010BC704700EBC35010440029EF
:1002F000A4BF10BC7047401C490008BF20F001009B
:1003000010BC7047F0B400F0004221F0004120F032
:100310000040CE0DC30DC1F3160141F40001C0F33E
:1003200016004C42154640F40000761E09E010EB22
:10033000440002D582F0004240428842F7D8400093
:100340005B1EB342F9DA18B1F0BC0021FFF7ACBF75
:100350002846F0BC70472DE9FE4F804681EA030035
:10036000C00F0C46009021F0004123F00045B8EB8F
:100370000200A94105D24046214690461C460B4644
:10038000024623F00040104347D0270DC7F30A0070
:10039000C3F30A510290401A019040286BDAC3F36C
:1003A000130040F4801B0098924620B10023D2EB4A
:1003B000030A63EB0B0B01985946C0F1400250460B
:1003C000FFF74AFF06460D4650465946019A00F08F
:1003D0008DF910EB08006141002487EA115284EA8C
:1003E000E7731A4340D0009A62B3019A012A4FEA98
:1003F000075215DC001B61EB02014FF0004202EADC
:100400000752CDE90042001C41F5801132462B46CF
:1004100000F08DF903B0BDE8F08F40462146F9E7C2
:10042000001B61EB0201001C41F5801300185B41C9
:100430002018A2F5001747EB030140EAD570B61962
:100440006D4111E06D084FEA360645EAC0754FEA86
:100450000752001B61EB0201001C41F580114908A5
:100460004FEA30000019514132462B4603B0BDE837
:10047000F04F00F04DB90098012240000023D0EB6E
:10048000020263EBE073009821464FEAE074B8EB98
:10049000000061EB0401E9E783F000435BE781F0D2
:1004A000004158E72DE9FE4F81EA030404F00044BF
:1004B00021F0004100944FF0000B23F0004350EA7C
:1004C00001045ED052EA03045BD0C3F30A54C1F3C3
:1004D0000A552C44A4F2F3340194A0FB0254C1F356
:1004E000130141F48011C3F3130343F4801301FBA0
:1004F000024400FB034E840A970A44EA815447EA07
:100500008357A4FB076802958D0A05FB07854FEA10
:10051000932C04FB0C542705029D4FEA065847EA2A
:100520001637B5EB08056EEB070C870E920E47EAFF
:10053000811742EA8312A7FB0201B6EB0B0164EBC1
:1005400000042B0D43EA0C335E1844EB1C50DA46D2
:100550005146E7FB0201C5F313044FEA0B3343EAAC
:1005600014534FEA0432019C43EA0603A4F10C043D
:100570000294009CCDE900B400F0D9F803B0BDE8C6
:10058000F08F00200146F9E72DE9F04D81EA0304E0
:1005900004F0004B21F0004514464FF0000A23F010
:1005A000004150EA050220D054EA01021DD0C5F3F3
:1005B0000A570246C5F31303C1F31300C1F30A56E9
:1005C00040F4801543F48013A7EB0608101BD646B1
:1005D00008F2FD3873EB050002D308F1010801E0D1
:1005E00092185B41B8F1000F03DA00200146BDE824
:1005F000F08D00204FF48011064684460EE0171B54
:1006000073EB050705D3121B63EB050306434CEAA6
:10061000010C49084FEA300092185B4150EA01078B
:10062000EDD152EA030012D082EA040083EA050108
:10063000084305D0101BAB4106D20122002306E07F
:1006400000224FF0004302E06FF0010253101AEB5A
:1006500006004CEB085110EB0A0041EB0B01BDE822
:10066000F04D00F055B8C1F30A52C1F3130140F246
:10067000FF3341F480119A4202DA002001467047AC
:1006800040F233439A42A2F2334202DC5242FFF775
:10069000F2BDFFF7E1BD000030B5041E71F10004AA
:1006A00004DB4FF00044404264EB0101141E73F17F
:1006B000000405DB1C464FF00043524263EB040389
:1006C000994208BF904230BD064C074D06E0E068F5
:1006D00040F0010394E8070098471034AC42F6D389
:1006E000FFF72AFDEC3600080C370008202A06DB4D
:1006F000CB17203A41FA02F043EAE07306E041FAF0
:1007000002F3D040C2F120029140084319467047DD
:1007100010B5141E73F1000408DA401C41F1000109
:1007200092185B411A4301D120F0010010BD2DE960
:10073000F04D92469B4611B1B1FA81F202E0B0FA57
:1007400080F220329046FFF787FD04460F4640EACC
:100750000A0041EA0B0153465A46084313D011469A
:1007600053EA010019D0C8F140025046FFF783FD5B
:1007700005460E46504659464246FFF76DFD084372
:1007800005D0012004E020463946BDE8F08D002068
:10079000054346EAE0762C4337430A986305E40AAA
:1007A000A0EB08000022FD0A44EA47540A3002D5B3
:1007B00000200146E9E7010510196941DDE9084516
:1007C00000196941BDE8F04DA2E700BFFEE7000057
:1007D000044880ED000AC0ED010A80ED021AC0ED68
:1007E000031A7047EC00002010B52DED028BB0EE1F
:1007F000408AB0EE480A034800F078F9BDEC028B5D
:1008000010BD0000EC00002010B52DED028B0C484F
:1008100000F056FAB0EE408A0A48D0ED000AF8EE31
:10082000E00A60EE880AB0EE600A074800F0AEF811
:10083000F0EE408AB0EE680ABDEC028B10BD0000FD
:1008400034010020B8000020E000002010B52DED9C
:10085000048BB0EE408AFFF7D7FF38EE400ADFED99
:100860000E0A20EE200ADFED0D0A80EE201AF0EECF
:10087000418AB0EE680AFFF7B7FFB0EE409A00F089
:1008800091FEF0EE409AF0EE690AB0EE490A02F0ED
:100890008FF9BDEC048B10BD00003443DB0F4940E1
:1008A00010B52DED068BB0EE408A9FED210AF0EEDB
:1008B000408A9FED200AB0EE409A39EE280AC8EE31
:1008C000800AB0EE60AA1C4880ED008A00211B4817
:1008D00000F030FA194800F03FFA174890ED000A8E
:1008E000F0EE000A80EE201AF0EE419AB0EE692A8E
:1008F000DFED131A9FED131ADFED120AB0EE000AB6
:10090000114800F0C7F89FED112ADFED0D1A9FED99
:100910000D1ADFED0C0AB0EE000A0D4800F0BAF82F
:100920009FED0C0A0C4800F01DF8BDEC068B10BDC5
:100930000AD7233CCDCCCC3D9800002034010020C8
:100940000050C34700000000EC0000200000C84237
:1009500010010020ACC52737E0000020704700BF21
:10096000FEE7000010B52DED028B0446B0EE408A84
:1009700084ED008A9FED040A84ED010A00F0FAFE7E
:10098000A060BDEC028B10BD0000000070B52DED25
:10099000048B0446B0EE408A00F0ECFE0546A068E9
:1009A000281A00EE100AB8EE400ADFED1C0A20EE0D
:1009B000200AF0EE408AF5EEC08AF1EE10FA04D279
:1009C0009FED170AF0EE408A0EE09FED160AF4EE56
:1009D000C08AF1EE10FA07DD84ED018AA560B0EE61
:1009E000480ABDEC048B70BD94ED000AD4ED000AFA
:1009F00070EEA80A80EE209A94ED010A20EE090A12
:100A0000F7EE000A70EEC90AF0EE409A40EE889ABE
:100A1000C4ED019AA560B0EE690AE2E7BD378635FC
:100A20006F12833A9A99993E00BFFEE74020014930
:100A3000086070471018014010B504462246012195
:100A4000880702F03CFC10BD10B504462246022186
:100A5000480702F034FC10BD10B5044622460321BD
:100A60004FF0804002F02BFC10BD704710B50028FD
:100A700007DA0A07140E054A00F00F031B1FD454AF
:100A800003E00A07130E024A135410BD18ED00E0EC
:100A900000E400E010B52DED068B0446B0EE408A70
:100AA000B0EE609AF0EE418AF0EE619AB0EE42AAA2
:100AB00084ED008A84ED019AC4ED028AC4ED039AA4
:100AC00084ED04AA9FED080A84ED050A9FED060A4D
:100AD00084ED060A9FED040A84ED070A00F04AFE41
:100AE0002062BDEC068B10BD0000000070B52DED3E
:100AF000068B0446B0EE409A00F03CFE0546206AA4
:100B0000281A00EE100AB8EE400ADFED570A20EE70
:100B1000200AB0EE408AB5EEC08AF1EE10FA06D98E
:100B2000B6EE000AB4EEC08AF1EE10FA03DD9FEDD6
:100B30004F0AB0EE408A94ED000A20EE09AA94ED27
:100B4000070AD4ED010A60EE880AB6EE001A60EEDC
:100B5000810A94ED051A31EE091AF0EE409A40EE42
:100B6000819A94ED040AB1EE400AB4EEE90AF1EE7E
:100B700010FA04DD94ED040AB1EE400A0BE094EDA6
:100B8000040AB4EEE90AF1EE10FA02D294ED040A76
:100B900001E0B0EE690AF0EE409A94ED020AD4ED5D
:100BA000050A79EE600A20EE200AC0EE08AA3AEEA5
:100BB000290A70EE2A8A94ED040AB1EE400AB4EED6
:100BC000E80AF1EE10FA04DD94ED040AB1EE400AF1
:100BD0000BE094ED040AB4EEE80AF1EE10FA02D24A
:100BE00094ED040A01E0B0EE680AF0EE408A94ED5C
:100BF000030AB5EEC00AF1EE10FA29DDD4ED060ABB
:100C000078EEE00A80EE881AB0EE410AD4ED030ACD
:100C1000F4EEC00AF1EE10FA08D2D4ED060A94ED13
:100C2000031A41EE080AF0EE608A10E0D4ED030AE0
:100C3000F1EE600AF4EEC00AF1EE10FA07DDD4ED31
:100C4000060A94ED031A41EE480AF0EE608A00BFEE
:100C5000C4ED079AC4ED068A84ED059A2562B0EECC
:100C6000680ABDEC068B70BDBD3786356F12833ABE
:100C70007047704790ED010A7047000070B52DED88
:100C8000028B05469FED0C0AF0EE408A01F088F9D0
:100C900008EE100AF8EE480A80EEA80ADFED070A0F
:100CA00020EE200A10EE104A2046FFF790FA41ECA1
:100CB000100BBDEC028B70BD00008045DB0FC940FE
:100CC00002698168891A01EE101AB8EE411ADFED47
:100CD000161A21EE211AF0EE410AF5EEC00AF1EEE5
:100CE00010FA03D89FED111AF0EE410A90ED011AA7
:100CF000D0ED031A31EE611AB1EE411AD0E90512B6
:100D0000891A01EE901AF8EEE11A9FED092A01EE18
:100D1000821A81EE200A90ED011A80ED031A4169D2
:100D20008161816801617047BD3786356F12833AF2
:100D3000DB0FC94001609FED070A80ED010A002228
:100D400082609FED040A80ED030A026142618261C4
:100D5000704700000000000010B52DED028B044626
:100D60002046FFF78BFF2046FFF788FFB0EE408A52
:100D7000F0EE608A51EC180BFFF73CFAE06000F0EF
:100D8000F9FC20612046FFF779FF2046FFF776FF48
:100D9000B0EE408AF0EE608A51EC180BFFF72AFAA9
:100DA000606000F0E7FCA060BDEC028B10BD0000AD
:100DB00010B52DED048B04462046FFF75FFFB0EE23
:100DC000409AF0EE609A51EC190BFFF713FA08EE17
:100DD000100A00F0CFFCA06094ED010A38EE400A42
:100DE000F0EE408AB0EEE80ADFED0B0AB4EEE00A5E
:100DF000F1EE10FA0BDDF5EEC08AF1EE10FA03D237
:100E00006069401E606102E06069401C606184EDC1
:100E1000018ABDEC048B10BD7CD9A04010B501F057
:100E2000FBF903480068401C0149086010BD000040
:100E3000080000201CB54E48006840F470004C4982
:100E400008604C48006840F001004A49086000BF53
:100E50004848006800F002000028F9D04548406882
:100E600000F00C00082866D100BF0020019002E0CD
:100E70000198401C019001985028F9D33D484068E2
:100E80000090009820F0F0000090009840F0800062
:100E900000903849009848600020019002E00198D5
:100EA000401C019001985028F9D3324840680090C6
:100EB000009820F0F0000090009840F09000009022
:100EC0002C49009848600020019002E00198401CE5
:100ED000019001985028F9D3264840680090009866
:100EE00020F0F0000090009840F0A0000090214910
:100EF000009848600020019002E00198401C019099
:100F000001985028F9D31B4840680090009820F0C1
:100F1000F0000090009840F0B00000901549009853
:100F200048600020019002E00198401C0190019867
:100F30005028F9D300BF0F48406820F003000D4946
:100F40004860C82000F0E7FF0A4800680A490840E6
:100F5000084908604FF41F0088600846006820F4C4
:100F60008020086000204860C86201F063FF1CBD5B
:100F700088ED00E000100240FFFFF6FE10B50D49BD
:100F80000D4802F073FB98B10B4802F0F3FAC1B2BE
:100F90000A4802880088401C084B18800848815481
:100FA00018460088022803DB0249034802F055FB7B
:100FB00010BD000005030500003801400E000020B0
:100FC000D600002010B50446204601F043F9002267
:100FD0001146252001F0C2FB40F20531014802F024
:100FE0002FFB10BD0038014000BFFEE70FB4054BDA
:100FF00010B503A9044A029800F00AFC10BC5DF881
:1010000014FB000031220008C40000204100080247
:1010100018BF04200A0E18BF40F001004FF07F42B5
:1010200032EA010108BF40F00200012808BF052094
:101030007047000010EE101A08B5444A6846B2EB3B
:10104000410F28D94FF0E640B0EB410F94BF00208C
:101050004FF0FF3000900098002861DB60EE000A3E
:1010600010F0010F45D010F0020FDFED391A9FED9F
:10107000391A00EEE11ADFED381A40EE811A21EE3E
:10108000A01AF0EE400A40EE010A08BFF1EE600A35
:10109000B0EE600A08BD314B21F0004293423CD9CA
:1010A00011F0004FDFED2E0A20EE201ADFED2D0AA1
:1010B00019BF31EE601A71EE200A31EE201A71EE7E
:1010C000600ABDEEE01A11EE100A9FED271A00F03B
:1010D000030000EEC10A9FED251A009000EEC10A40
:1010E0009FED231A00EEC10A9FED221A00EEC10AFD
:1010F000B1E79FED211A9FED210A10F0020F00EEDB
:10110000810A9FED1F1A00EE801AB7EE000A00EE6A
:10111000810A18BFB1EE400A08BD00F083F99AE7D2
:1011200010EE100A4000B0F17F4F3CBFB7EE000A4E
:1011300008BD07D14FF0010000F02EFABDE80840CD
:1011400000F060B9BDE8084000F059B9B61F927EC2
:10115000336D4C39DA82083CA0AA2ABE490E4946B2
:1011600083F9223F0000004B0000C93F00A0FD3979
:101170000020A2331A61342CB93AB2BACA9F2A3D70
:10118000DDFFFFBE10B52DED028BF0EE408A18EEAC
:10119000900AB0EE608A20F00040C0F1FF40C00F1E
:1011A00007D118EE100A20F00040C0F1FF40C00F38
:1011B0002BD018EE101A18EE900AFFF7A3F800EEE5
:1011C000100A10EE100A6FEAD05010F0FF0F04BFA3
:1011D000BDEC028B10BD18EE900A00F0004110EE3D
:1011E000100A00F00040814204BFBDEC028B10BD2C
:1011F00018EE101A10EE100ABDEC028B61F31E00FF
:1012000000EE900A30EE600A10BD18EE900A4FF022
:101210007F41B1EB400F1CBF18EE100A5FEA40009F
:10122000C7D1012000F0B8F9BDEC028BBDE8104039
:1012300000F0E8B800B510EE101A2DED028B81B069
:10124000524A6846B2EB410F2ED94FF0E640B0EB60
:10125000410F94BF00204FF0FF3000900098B0EE97
:10126000408A00286ADB10F0010F4BD068EE080AB4
:101270009FED471A9FED470A00EE810A9FED461A3F
:1012800010F0020F00EE801AB7EE000A00EE810A9D
:1012900002BF01B0BDEC028B00BD00BF01B0B1EEDA
:1012A000400ABDEC028B00BD3C4B21F00042934252
:1012B00041D911F0004FDFED3A0A20EE201ADFEDA0
:1012C000390A19BF31EE601A71EE200A31EE201A88
:1012D00071EE600ABDEEE01A11EE100A9FED321AAF
:1012E00000F0030000EEC10A9FED301A009000EEFE
:1012F000C10A9FED2F1A00EEC10A9FED2E1A00EED3
:10130000C10AABE728EE080A9FED2B1ADFED2B0A86
:1013100010F0020F40EE410A9FED291A00EE201A4C
:1013200061EE000AB0EE480A08EE200AB6D101B01C
:10133000BDEC028B00BD00F075F88FE718EE100AC7
:101340004000B0F17F4F0DD218EE100AFFF75EFE9D
:10135000042808BF00F05EF8B0EE480A01B0BDEC0A
:10136000028B00BD09D1012000F016F901B0BDECDF
:10137000028B5DF804EB00F045B801B0B0EE480A0E
:10138000BDEC028B5DF804EB00F039B8B61F927E1D
:10139000B93AB2BACA9F2A3DDDFFFFBE490E49469F
:1013A00083F9223F0000004B0000C93F00A0FD3937
:1013B0000020A2331A61342C336D4C39DA82083C98
:1013C000A0AA2ABE10B52DED028BB1EEC08A18EE90
:1013D000100A20F00040C0F1FF40C00F0AD010EE0C
:1013E000100A20F00040C0F1FF40C00F04BF0120F0
:1013F00000F0D2F8B0EE480ABDEC028B10BD30EE22
:10140000000A7047DFED020A80EEA00A7047000074
:10141000000000009FED020A20EE000A7047000065
:10142000000000102DE9F0014FF07F42B2EB410FB8
:101430009FBF4FF0FF310160BDE8F00170474FF0F2
:10144000004242EA0123C1F3C752783A551112F023
:101450001F0C434CCCF120067C44C1F3C752A2F1CF
:1014600078024FEA621204EB820254F8254008BF6A
:10147000D2E9015612D0556804FA0CF425FA06F7A1
:101480003C43976805FA0CF527FA06F8D26807FA84
:101490000CFCF24045EA08054CEA0206A4FB034CAA
:1014A000A5FB0352A6FB03631D449D4234BF0126E6
:1014B00000261319334416B1934202D903E0934234
:1014C00001D2012200E00022624402F1200C9206C7
:1014D000DC0C42EA443200EE102A5B03DFED210A05
:1014E000F8EEC01A00EE103A4FEA9C1C11F0004FC3
:1014F000B8EE400AC0F800C020EE201A00EE105AE4
:10150000DFED190AB8EE400A20EE200A71EE810ADA
:1015100070EE800A10EE902A02F500626FF30B0263
:1015200000EE902A70EEE11A31EEC11ADFED101ACA
:1015300030EE411A9FED0D0A20EE800A01EE210ADD
:101540009FED0C1A00EE810A04BFBDE8F001704760
:10155000CCF180510160BDE8F001B1EE400A704766
:1015600070220000000000360000802C22AAFD2915
:10157000DB0FC92F0000C92F02E008C8121F08C1E5
:10158000002AFAD170477047002001E001C1121F04
:10159000002AFBD170470000014908607047000035
:1015A000C800002010B52DED028B0D48FFF762FB3F
:1015B0000C4800680C490968484300EE900AB8EEF0
:1015C000E01A0A48D0ED000A51EE000AB0EE608A37
:1015D000B0EE480A00F0FEF8BDEC028B10BD000032
:1015E00034010020B8000020B4000020B00000202A
:1015F0002DE9FF5F82B00021DDE90430020DDDF846
:1016000040B0034318D044F61050A2F2FF324243D8
:101610001514119801281FD0A5EB0B00401C5FEAA0
:10162000000A4FF000064E4FDFF83891B0465046A2
:1016300015D5CAF1000413E0119801244AA301282A
:1016400001D16FEA0B010298119AC0E90031C0E99B
:10165000024206B0BDE8F09FCBF10000DFE7044690
:101660000021404A491842EB0450CDE9001012E035
:10167000E00707D032463B4640464946FEF712FF98
:101680008046894632463B4610461946FEF70AFF19
:1016900006460F466410002CEAD1DDE90401DDE9BD
:1016A0000023BAF1000F06DAFEF7FCFE42464B4675
:1016B000FEF7F8FE05E0FEF767FF42464B46FEF7F1
:1016C00063FF04460E460022284BFEF7E5FF03D8D1
:1016D0004FF0FF30014607E00022254B20463146FF
:1016E000FEF739FEFEF7BFFF102409E0002C0ADBED
:1016F0000A220023FEF73AFD039B30321A55641E7E
:1017000050EA0102F2D1641C039AC4F1110314449B
:10171000119A012A03D0012208430DD10AE008439F
:1017200004D000204FF0110B119072E7A3EB0B05D2
:101730006D1E0DE05B4504DD4FF0000205F1010573
:1017400004E003DA4FF00002A5F10105002AECD015
:1017500002981199C0E90231C0E9004579E700001B
:10176000000014400000F03F300000000000F04393
:101770000000E03F2DE9F0470024002600BFA1460D
:1017800000BF114804684FF0E02086690E480068E9
:101790008442F6D14FF0E020406900F101094FF496
:1017A0007A7004FB00F5A9EB06000849A0FB017064
:1017B00001460748002302683846FEF7D7FC054477
:1017C0002846BDE8F08700000800002040420F00D6
:1017D0001400002010B52DED028BF0EE408ADFEDF5
:1017E0000B0AB0EE680AFFF7CDFCB0EE408AB5EE0A
:1017F000C08AF1EE10FA04DBB0EE480ABDEC028BB1
:1018000010BD9FED020A38EE000AF7E7DB0FC94072
:101810002DE9FF4F95B09A46884606460025EEE131
:10182000252877D100242746F94A0121039400E0B6
:10183000044316F8013F203B01FA03F01042F7D1B0
:1018400030782A2811D06FF02F033078A0F13002C1
:10185000092A16D8039A44F0020402EB820203EB31
:1018600042021044761C0390EFE758F8042B0392D1
:10187000002A03DA504244F40054039044F0020476
:10188000761C30782E2816D116F8010F44F0040487
:101890002A280DD06FF02F023078A0F13003092BE9
:1018A00009D807EB870302EB4303C718761CF3E75D
:1018B00058F8047B761C30786C280FD006DC4C2856
:1018C00017D068280DD06A2814D104E0742810D0ED
:1018D0007A280FD10DE044F400140AE044F4801497
:1018E00001E044F440147278824202D104F580147D
:1018F000761C761C307866280BD013DC582877D0FD
:1019000009DC002875D04528F6D04628F4D04728B1
:101910001AD193E118E0632835D0642879D065287E
:1019200012D18BE1702873D008DC6728F1D06928C8
:101930006FD06E280DD06F2806D1ACE073282CD064
:10194000752874D0782853D05246179990476D1C4B
:1019500054E1C4F30250022809D003280DD0D8F86E
:10196000001004280DD00D6008F1040846E1D8F8F5
:101970000010EA17C1E90052F6E7D8F800100D8010
:10198000F2E70D70F0E718F8041B8DF80010002046
:101990008DF80100EB46012003E058F804BB4FF03E
:1019A000FF3061074FF0000102D40DE009F10101A1
:1019B0008946B9420FDA8145F8DB1BF80910002986
:1019C000F4D108E009F1010189468142FADB1BF8F4
:1019D00009100029F6D103985346A0EB09072146C8
:1019E0003846179A00F080FA284400EB090507E012
:1019F00044E008E10DE01BF8010B524617999047AF
:101A0000B9F10109F7D2534621463846179AF2E058
:101A100039E00A21C4F302524FF0000B0091022A70
:101A200006D058F8040BC117032A09D00AE023E0B6
:101A300008F1070020F00702F2E80201904605E0F5
:101A400000B2C117042A01D140B2C117002906DA39
:101A50000A460021404261EB02012D2202E02205EC
:101A600004D52B228DF80420012203E0E20701D0E7
:101A70002022F7E7914657E00A2100E010214FF0BD
:101A8000000B00910BE010214FF0000B44F0040418
:101A90000827009103E008204FF0000B0090C4F3EA
:101AA0000252022A05D058F8040B0021032A08D05C
:101AB00008E008F1070020F00702F2E80201904672
:101AC00003E080B2042A00D1C0B24FF0000922071F
:101AD0002AD53278702A07D0DDF800C08CF0100CBF
:101AE0005CEA0B0C05D00EE040228DF804200122A8
:101AF00008E050EA010306D030238DF804308DF859
:101B0000052002229146009B83F0080353EA0B0351
:101B10000AD150EA010201D1620705D530228DF8C1
:101B200004204FF001097F1E3278582A04D039A2D0
:101B30000C920CAA02920BE03BA2F9E75B46009ADA
:101B4000FEF714FB0C9B9B5C029A521E02921370D0
:101B500050EA0102F2D1029804A9081A00F1200B00
:101B6000600702D524F4803400E001275F4502DDE0
:101B7000A7EB0B0000E0002000EB0B0100900398A6
:101B80004944401A0390E00306D453462146179A6D
:101B9000039800F0A9F90544002706E001A8524681
:101BA000C05D179990476D1C7F1C4F45F6DBE00325
:101BB0000CD553462146179A039800F095F9054431
:101BC00004E030205246179990476D1C0099481E3A
:101BD00000900029F5DC08E002980299524600784E
:101BE000491C0291179990476D1CBBF10001ABF1A4
:101BF000010BF1DC5BE100F065F90544761C3078FF
:101C000000287FF40DAE19B02846BDE8F08F000023
:101C100009280100303132333435363738396162C2
:101C20006364656600000000303132333435363786
:101C3000383941424344454600000000600700D463
:101C4000062708F1070020F00700F0E8022380468D
:101C500003F0004C5FEA0C0001D097A009E02005DA
:101C600001D596A005E0E00701D095A001E0AFF214
:101C70004C001390307823F0004365280CD006DC2C
:101C8000452809D046281DD047287FD13BE066284B
:101C900018D067287AD136E00021112F01DB1120FE
:101CA00000E0781CCDE9000104A90CA8FFF7A0FC16
:101CB000DDE90D010C9A4FF0000B07F101091092BC
:101CC00000914EE04FF000400097CDE9011004A9CB
:101CD0000CA8FFF78DFCDDE90D020C9B0F994FF06E
:101CE000000B91461093009211B9791C00EB010989
:101CF000B7EB090003D4C0F1FF3B07F10109A9EBE1
:101D00000700019042E0012F00DA01270021112F86
:101D100001DD112000E03846CDE9000104A90CA83E
:101D2000FFF766FCDDE90D010C9A00914FF0000B06
:101D3000B946109221070FD4009A4A4503DA91461A
:101D400001E0A9F10109B9F1010F05DD109AA9F12E
:101D50000101515C3029F4D0B84202DA10F1040FCD
:101D600003DA0121CDE9011010E0002803DC8344EF
:101D7000A9EB000102E0411C494500DD8946A0EBCA
:101D80000B00401C01904FF000400290200705D44A
:101D90000198484502DB4FF0FF30019000208DF89C
:101DA0004B0002980DF14B07B0F1004F25D00220F7
:101DB0000C902B200D90029800280CDA40420290E3
:101DC0002D200D9007E00A210298FEF72FFA3031FE
:101DD000029007F8011D0C99481E0C900029F2DCB6
:101DE00002980028EFD1791E0D980870307800F025
:101DF000200040F0450007F8020D11A8C01BC01DCF
:101E000002901398007800B1012000EB09010198BD
:101E100001EBE071029801440398401A401E0390C0
:101E2000E00306D453462146179A039800F05CF865
:101E300005441398007818B15246179990476D1CC5
:101E4000E00323D553462146179A039800F04CF837
:101E500005441BE0BBF1000F07DB0098584504DD8B
:101E60001098179910F80B0001E01799302052468E
:101E7000904701980BF1010B401E05F101050190FF
:101E800004D12E205246179990476D1CB9F10001DC
:101E9000A9F10109DEDC05E017F8010B524617999C
:101EA00090476D1C0299481E02900029F4DC5346AD
:101EB0002146179A03989EE62D0000002B00000093
:101EC000200000002DE9F041044600251E4617467B
:101ED000880404D405E039462020B0476D1C641EF8
:101EE000F9D52846BDE8F0812DE9F04104460025EA
:101EF0001E469046C80301D5302700E020278804FD
:101F000004D505E041463846B0476D1C641EF9D53E
:101F10002846BDE8F08108B50021009102E0009953
:101F2000491C009100EB8001009AB2EB410FF6D3FF
:101F300008BD10B500F060F90446C4F3401010BDB0
:101F400010B540F2036000F021FD40F2157000F082
:101F50001DFD402303221C210E4800F0EFF98023D1
:101F600003221C210B4800F0E9F900220A490B4822
:101F700000F052FA00231A461946084800F025FBE3
:101F8000064800F0F0FA4FF48061044800F034FA9B
:101F900010BD0000000C014000350C000054004052
:101FA00010B500F003F80446204610BD10B50C2013
:101FB00000F080F810BD000070B50446002500BF99
:101FC00040F201613A4800F0E7FA0028F8D13848B9
:101FD00000F009FB00BF4FF4A061354800F0DCFAC7
:101FE0000028F8D06FF001026C21314800F0E3FACC
:101FF00000BF40F201512E4800F0CEFA0028F8D080
:1020000040F201512A4800F0B3FA00BF40F20751F4
:10201000274800F0C1FA0128F8D12146244800F0F1
:102020009FFA00BF40F20251214800F0B5FA0028A3
:10203000F8D01F4800F0D7FA00BF4FF4A0611C4849
:1020400000F0AAFA0028F8D001226C21184800F00C
:10205000B2FA0021164800F0CFF900BF40F201515A
:10206000134800F099FA0028F8D040F201511048C6
:1020700000F07EFA0E4800F0BBFA00BF40F20651B5
:102080000B4800F089FA0028F8D0094800F064FAFB
:10209000054600BF0648006800F400700028F9D12A
:1020A0004FF48061024800F0A7F9284670BD000097
:1020B000005400402DE9F041064600BF40F20161A6
:1020C0004C4800F069FA0028F8D14FF40061494803
:1020D00000F09AF9474800F086FA00BF4FF4A0617B
:1020E000444800F059FA0028F8D06FF001026C2142
:1020F000404800F060FA00BF40F201513D4800F056
:102100004BFA0028F8D040F201513A4800F030FA7A
:1021100000BF40F20751374800F03EFA0128F8D1DD
:10212000344800F020FA3146324800F019FA00BF76
:1021300040F202512F4800F02FFA0028F8D02D4825
:1021400000F051FA00BF4FF4A0612A4800F024FAD1
:102150000028F8D001226C21264800F02CFA00213A
:10216000244800F049F900BF40F20151214800F035
:1021700013FA0028F8D040F201511E4800F0F8F997
:1021800000BF40F202511B4800F006FA0028F8D0C8
:10219000184800F02DFA00BF40F20651154800F033
:1021A000FBF90028F8D0134800F0D6F9044600BF28
:1021B00040F206510F4800F0EFF90028F8D00D4822
:1021C00000F0CAF9054600BF0A48006800F4007034
:1021D0000028F9D14FF48061064800F00DF9002184
:1021E000044800F011F945EA0427C7F30B00BDE8E5
:1021F000F08100000054004010B50B20FFF7DCFE1A
:1022000010BD00000349086000BF024909680029A9
:10221000FBD17047040000200448006820B1034847
:102220000068401E0149086070470000040000205B
:1022300070B504460D46E1B2054801F0A0F900BFB3
:102240000721034801F0EDF90028F9D0204670BDC0
:102250000038014070B5054600241D48854200D174
:1022600003E01C48854200D101241B4931F81400C9
:1022700000F08CFB194931F8140000F087FB184975
:1022800051F82430174951F824000322182100F096
:1022900055F8154951F82430124951F82400032209
:1022A000042100F04BF8284601F06EF94FF4E131BB
:1022B000284601F017F90421284601F0F3F9082116
:1022C000284601F0F9F9284601F0A6F970BD000092
:1022D0000038014000440040540000203800002035
:1022E0003C0000204C0000204400002010B540F2CB
:1022F000026000F04BFB40F2026000F047FB40F24E
:10230000066000F043FB40F2066000F03FFB0E2346
:1023100003221821074800F011F84023032210215E
:10232000054800F00BF8402303221021024800F07A
:1023300005F810BD0008014000180140F0B5044642
:1023400016460025002201F00F0501F0100747B1E5
:10235000042E05D145F00305E76B1F43E76300E05A
:10236000354300201EE0012787401F40C7B1226887
:102370004FEA800C0F2707FA0CF7BA43870005FADB
:1023800007F73A43282904D1012787401F40676196
:1023900005E0482903D1012787401F4027612260BB
:1023A000471CB8B20828DED3082022E00127874066
:1023B0001F40E7B16268A0F108074FEA870C0F27BA
:1023C00007FA0CF7BA43A0F10807BF0005FA07F7B0
:1023D0003A43282904D1012787401F40676105E05F
:1023E000482903D1012787401F4027616260471CAD
:1023F000B8B21028DAD3F0BD0A460021016821F4F2
:1024000080611143016070470A460021016821F490
:1024100000611143016070472DE9F05F04460E46EC
:1024200092460EB900BFFEE7022000F003FA07460D
:102430004648B7FBF0F8B8F13C0F01D34FF03C0829
:10244000D4F804B02BF07F0B4BEA080BC4F804B0AF
:102450003F4886421ED83D48B7FBF0F000F1010925
:10246000B9F13C0F02D33C20206207E0B9F1020F22
:1024700002D80220206201E0C4F820907000B7FB6F
:10248000F0F5042D00D20425E069C5F30B010843E3
:10249000E06158E02F4886422CD84FF4967008FB34
:1024A00000F04FF47A71B0FBF1F0401C2062BAF1F9
:1024B000000F08D106EB4600B7FBF0F5E06920F409
:1024C0008040E06109E006EBC60000EB0610B7FBB8
:1024D000F0F5E06940F48040E061C5F30B0008B915
:1024E00045F00105E06940F40040E061E0692843FF
:1024F000E06128E0C8EB0810C0004FF47A71B0FB2F
:10250000F1F0401C2062BAF1000F08D106EB460042
:10251000B7FBF0F5E06920F48040E06109E006EBEC
:10252000C60000EB0610B7FBF0F5E06940F4804010
:10253000E061E06940F40040E061E0692843E06167
:102540000120C4F89000BDE8F09F000040420F0059
:10255000A0860100801A060001460869C0B27047D3
:10256000CAB202617047016841F001010160704721
:1025700010B540F20152914202D1426982690AE0EB
:1025800000EB9112126801F01F040123A3409A434B
:1025900000EB91131A6010BD10B5024602EB9110CA
:1025A000006801F01F040123A340184008B1012076
:1025B00010BD0020FCE712F1020F02D121F0010151
:1025C00001E041F001010161704730B50C46002186
:1025D000016821F0020121430160C3F3090342EACB
:1025E0000305856030BD016841F48071016070476A
:1025F000016841F400710160704700002DED048B0B
:1026000082B00025002400F019FCFFF76FFE33486C
:10261000FEF7D8FCFEF70AFAFFF792FCC820FFF796
:10262000F1FDFFF786FC00F08AFEDFED2D1A9FED2D
:102630002C1ADFED2C0A9FED2C0AFEF7C9F8B2EE3A
:10264000080AFEF72DF947E02848008801283DDDFB
:1026500027480578407800EE100AB8EE400A254871
:1026600080ED000A90ED000ADFED230A80EE201ACB
:1026700080ED001A90ED000A2048FEF773F900245F
:1026800007E01B48025D21461DA0FEF7AFFC601C61
:1026900004B20A2CF5DB194890ED000A10EE101A6E
:1026A0000846FDF794FD41EC180B12480068FDF751
:1026B0008EFD41EC190B8DED008B53EC192B294647
:1026C00016A0FEF793FC00200849088000EE105A7F
:1026D000B8EE400AFEF7BAF8B6E70000003801404D
:1026E00000000000CDCCCC3D0AD7233C0E000020DA
:1026F000D6000020000000200050C347E00000206A
:102700000D0A2072785F6275666665725B25785D7A
:10271000203D202578200D0A000000000D0A2073BE
:1027200065745F7370656564203D2025782073654E
:10273000745F6C6F77706173735F70617261203D5D
:102740002025662C2074696D655F636F6E737461FC
:102750006E74203D202566200D0A00002DE9F04111
:1027600003460D46164600240027A0462A48006866
:1027700000F4E060B0F5E06F03D100BF4FF0040853
:1027800030E02548006800F4E060B0F5C06F03D188
:1027900001274FF0030825E01F48006800F4E060BF
:1027A000B0F5A06F02D10227B8461BE01A480068B6
:1027B00000F4E060B0F5806F03D103274FF001080B
:1027C00010E01548006800F4E060B0F5407F03D1E8
:1027D00004274FF0000805E04FF4A06000F020F857
:1027E0000227B846C7F1040005FA00F4C8F1040155
:1027F0000F20C8403040044324010848C45403F06B
:102800001F01012088405911890001F1E021C1F820
:102810000001BDE8F08100000CED00E000E400E004
:1028200002490143024A1160704700000000FA05A6
:102830000CED00E02DE9F04F8CB0074600200A9027
:102840004AA090E8004CC068CDE905BECDF810A0C4
:1028500007900FF21C1ADAE9000ACDE9020A0FF21A
:10286000101ADAE9000ACDE9000A44484068C0F3CA
:1028700081000B900B9820B1012804D002283FD191
:1028800003E03F4A3EE03E4A3CE03C48406800F4FA
:10289000803CBCF5803F12D13848C06A00F08048C7
:1028A000B8F1000F01D1364B00E0364B3348406899
:1028B00000F40039B9F5003F02D15B0800E0324B6B
:1028C0002E484068C0F383412C48406800F0006007
:1028D00008B141F010012948406800F0804008B17B
:1028E00041F020010F2901D2891C06E00F2903D3F2
:1028F0003E2901D8491C00E03F2103FB01F201E021
:102900001F4A00BF00BF1D484068C0F3031504A85C
:10291000465D22FA06F419484068C0F3022502A871
:10292000465D24FA06F0099014484068C0F3C225B9
:102930001DF8056024FA06F0089037B1012F06D083
:10294000022F06D0032F0AD106E00A9208E00A946B
:1029500006E009980A9003E008980A9000E000BF9A
:1029600000BF0A980CB0BDE8F08F00000000000026
:1029700000000000010203040607080900100240DD
:1029800000127A00006CDC0200093D00064A02EBEE
:102990009011096800F01F0301229A401143024B75
:1029A00003EB90121160704700100240064A02EBE0
:1029B0009011096800F01F0301229A409143024BD5
:1029C00003EB90121160704700100240064A02EBC0
:1029D0009011096800F01F0301229A401143024B35
:1029E00003EB9012116070470010024010B52DEDFE
:1029F000068BB0EE408AF0EE608AB0EE419AB5EEFA
:102A0000C08AF1EE10FA02D29FED660A0CE0664829
:102A100090ED000AB4EEC08AF1EE10FA02DD90EDFE
:102A2000000A01E0B0EE480AB0EE408AF5EEC08A36
:102A3000F1EE10FA02D29FED5B0A0CE05A4890EDDD
:102A4000000AF4EEC08AF1EE10FA02DD90ED000A01
:102A500001E0B0EE680AF0EE408AB5EEC09AF1EE01
:102A600010FA02D29FED4F0A0CE04F4890ED000A99
:102A7000B4EEC09AF1EE10FA02DD90ED000A01E02A
:102A8000B0EE490AB0EE409A474890ED000AC8EE11
:102A9000000AF5EEC00AF1EE10FA02D29FED410AEB
:102AA00013E0414890ED000AC8EE000AB7EE000AB4
:102AB000F4EEC00AF1EE10FA02DDB7EE000A04E00F
:102AC0003948D0ED000A88EE200AF0EE409A3648E8
:102AD00090ED000AC8EE800AF5EEC00AF1EE10FA99
:102AE00002D29FED300A13E02F48D0ED000A88EEA5
:102AF000A00AF7EE000AB4EEE00AF1EE10FA02DDE9
:102B0000B7EE000A04E02848D0ED000A88EEA00ADB
:102B1000B0EE40AA244890ED000AC9EE000AF5EE96
:102B2000C00AF1EE10FA02D29FED1E0A13E01E4811
:102B3000D0ED000A89EE200AF7EE000AB4EEE00AB2
:102B4000F1EE10FA02DDB7EE000A04E01648D0ED0F
:102B5000000A89EE200AF0EE40AA9FED140A29EE41
:102B6000800ABCEEC00A10EE101A88B2FDF764FFAE
:102B70009FED0E0A2AEE000ABCEEC00A10EE101AF3
:102B800088B2FDF761FF9FED090A2AEE800ABCEECC
:102B9000C00A10EE101A88B2FDF75EFFBDEC068B7E
:102BA00010BD0000000000009800002000007F43DE
:102BB00010B52DED028BB0EE408AF0EE608A4F48E2
:102BC000FEF7F6F84E4890ED000AF1EE400AB0EE3E
:102BD000001A80EE810AB4EEC80AF1EE10FA08DDA0
:102BE00090ED000AF1EE400AB0EE001A80EE810A84
:102BF00014E04348D0ED000AB0EE001A80EE810ADE
:102C0000B4EEC80AF1EE10FA06D2D0ED000AB0EE2A
:102C1000001A80EE810A01E0B0EE480AB0EE408A68
:102C2000B0EE680AFEF7D6FDF0EE408AB0EE680A14
:102C3000FEF700FBF1EE480A20EE200A314880ED55
:102C4000000AB0EE680AFEF7F5F920EE080A2E48F1
:102C500080ED000A2A48D0ED000AB0EE001A80EE9E
:102C6000810A2848D0ED000A30EE200A274880ED7E
:102C7000000AB0EE080AFEF7A5FB234890ED001A03
:102C80002048D0ED000A50EE010AB0EE001A80EEA6
:102C9000810A1B48D0ED000AB0EE001AC0EE811A7E
:102CA00030EE210A1A4880ED000AB0EE080AFEF75D
:102CB00089FB154890ED001A1248D0ED000A50EE3D
:102CC000410AB0EE001A80EE810A0D48D0ED000AEC
:102CD000B0EE001AC0EE811A30EE210A0D4880EDE8
:102CE000000A90ED001A0A48D0ED000A074890ED5E
:102CF000000AFFF77BFEBDEC028B10BD3401002003
:102D0000980000209C000020A0000020A4000020CB
:102D1000A8000020AC00002008B500200021414A96
:102D2000126842F480323F4B1A6000BF401C3D4A9B
:102D3000126802F4003119B94FF6FF729042F5D1D2
:102D4000384A126802F400320AB900BFFEE7354A79
:102D5000D26942F08052334BDA61334A126842F44E
:102D60004042314B1A602F4A52682E4B5A601A4625
:102D700052685A601A46526842F480625A601A4693
:102D8000526822F440325A601A46526842F4403285
:102D90005A601A465268254B1A40224B5A601A460E
:102DA0005268234B1A431F4B5A601A46126842F06E
:102DB00080721A6000BF1B4A126802F00072002A7B
:102DC000F9D0194A126842F48032174B1A6000BFDA
:102DD000154A526802F48032002AF9D0124A126869
:102DE00042F40032104B1A6000BF0F4A526802F4DE
:102DF0000032002AF9D00B4A52680092009A22F061
:102E000003020092009A42F002020092054B009ADF
:102E10005A6000BF034A526802F00802002AF9D043
:102E200008BD00000010024000700040FFFFC3B763
:102E30000000340810B5FFF76FFF10BD10B5124841
:102E400000684FF47A71B0FBF1F4601EB0F1807F3E
:102E500001D301200FE0601E4FF0E02148610F21F7
:102E60004FF0FF30FDF702FE00204FF0E0218861B7
:102E700007200861002008B100BFFEE70021481EBE
:102E8000FDF7F4FD10BD00001400002000B587B070
:102E900040F20B60FFF77AFD364800F057FA7720D2
:102EA000ADF800000020ADF80200ADF804004FF4CA
:102EB000807002900020ADF806008DF80C00694685
:102EC0002C4800F0B7FA0120ADF810000020ADF852
:102ED0001200ADF81400ADF81600ADF81800ADF80A
:102EE0001A0004AA0021234800F0C6F804AA012110
:102EF000204800F0C1F804AA02211E4800F0BCF8E6
:102F0000FA2200211B4800F0DAF9FA2201211948BF
:102F100000F0D5F9FA220221164800F0D0F960221B
:102F20000021144800F09EF960220121114800F0B0
:102F300099F9602202210F4800F094F9002211460D
:102F40000C4800F0CFF9002201210A4800F0CAF92C
:102F500000220221074800F0C5F90121054800F0D0
:102F6000B5FA044800F082F8024800F05DFA07B0B4
:102F700000BD0000002C014000B587B04FF4E060B8
:102F8000FFF704FD4FF0804000F0E0F97720ADF846
:102F900000000020ADF80200ADF804004FF480708E
:102FA00002900020ADF806008DF80C0069464FF045
:102FB000804000F03FFA0120ADF810000020ADF88D
:102FC0001200ADF81400ADF81600ADF81800ADF819
:102FD0001A0004AA0121880700F04EF804AA022171
:102FE000480700F049F804AA03214FF0804000F0A0
:102FF00043F8FA220121880700F061F9FA22022140
:10300000480700F05CF9FA220321500700F057F955
:1030100060220121880700F025F96022022148077B
:1030200000F020F9602203214FF0804000F01AF9EF
:1030300000220121880700F055F9002202214807EB
:1030400000F050F9002203214FF0804000F04AF9CF
:103050000121880700F03AFA4FF0804000F006F8AE
:103060004FF0804000F0E0F907B000BD016841F08A
:10307000800101607047000010B531B101293FD0D7
:1030800002297DD003297CD1BFE0036A23F001032C
:103090000362836923F003038361036A1488234373
:1030A0000362036A23F002030362036A94882343E2
:1030B00003626A4B984202D0694B98421FD1036A5F
:1030C00023F004030362036A548823430362036A00
:1030D00023F008030362036AD4882343036243682E
:1030E00023F4807343604368148923434360436837
:1030F00023F4007343604368548923434360ABE087
:10310000036A23F010030362836923F4407383612D
:10311000036A148843EA04130362036A23F020035A
:103120000362036A948843EA041303624B4B984298
:1031300002D04B4B984226D1036A23F0400303622E
:10314000036A548843EA04130362036A23F080038A
:103150000362036AD48843EA04130362436823F4D6
:10316000806343604368148943EA8403436043688F
:1031700023F4006343604368548943EA840301E015
:1031800002E068E0436067E0036A23F4807303624F
:10319000C36923F00303C361036A148843EA042369
:1031A0000362036A23F400730362036A948843EAA8
:1031B00004230362294B984202D0294B984223D121
:1031C000036A23F480630362036A548843EA042396
:1031D0000362036A23F400630362036AD48843EA48
:1031E00004230362436823F48053436043681489D3
:1031F00043EA04134360436823F400534360436885
:10320000548943EA0413436026E0036A23F480539D
:103210000362C36923F44073C361036A148843EAF9
:1032200004330362036A23F400530362036A94883D
:1032300043EA04330362094B984202D0084B984298
:1032400008D1436823F4804343604368148943EA08
:103250008413436000E000BF00BF10BD002C01409C
:103260000034014031B101290CD0022913D00329C7
:1032700022D118E0836923F07003836183691343CB
:1032800083611AE0836923F4E0438361836943EA3D
:103290000223836111E0C36923F07003C361C36932
:1032A0001343C36109E0C36923F4E043C361C36905
:1032B00043EA0223C36100E000BF00BF704731B1A1
:1032C000012906D0022906D0032908D105E042636E
:1032D00006E0826304E0C26302E0026400E000BF33
:1032E00000BF704731B101290CD0022913D0032946
:1032F00022D118E0836923F00803836183691343B3
:1033000083611AE0836923F400638361836943EA7C
:103310000223836111E0C36923F00803C361C36919
:103320001343C36109E0C36923F40063C361C36944
:1033300043EA0223C36100E000BF00BF704710B53D
:10334000FFF7A4FDFFF718FE10BD000010B50446FE
:103350003349601A8C4244D00CDCB4F1804F1CD04D
:103360003048204410B3B0F5806F28D0B0F5006F1E
:1033700052D12DE0B0F5806F3CD0B0F58E3F03D038
:10338000B0F5923F48D13EE040F20B30FFF71EFB14
:1033900040F20B30FFF70AFB3FE04FF48060FFF78D
:1033A00015FB4FF48060FFF701FB36E040F201406F
:1033B000FFF70CFB40F20140FFF7F8FA2DE040F276
:1033C0000240FFF703FB40F20240FFF7EFFA24E070
:1033D00040F20340FFF7FAFA40F20340FFF7E6FA43
:1033E0001BE040F20440FFF7F1FA40F20440FFF71F
:1033F000DDFA12E040F20540FFF7E8FA40F205403E
:10340000FFF7D4FA09E040F20D30FFF7DFFA40F29F
:103410000D30FFF7CBFA00E000BF00BF10BD000089
:103420000010004000FCFFBF016841F00101016095
:10343000704700000A8882621D4A90420ED0B0F1A7
:10344000804F0BD01B4A904208D01B4A904205D0B7
:103450001A4A904202D01A4A90420BD1026822F0D6
:103460007002026002684B881A43026002688B880F
:103470001A4302608A68C262124A90420AD0124A13
:10348000904207D0026822F4407202600268CB8842
:103490001A430260064A904202D0094A904201D182
:1034A0000A7B0263426942F00102426170470000F8
:1034B000002C01400004004000080040000C0040C7
:1034C000003401400010004000140040012904D1E4
:1034D000426C42F40042426403E0426C22F4004237
:1034E000426470472DE9F04704460D460027B84670
:1034F000B94600261D49601A8C421CD006DC1C48C7
:10350000204470B1B0F5806F1FD10FE0B0F5806F2F
:1035100016D0B0F56C4F18D10320FFF78BF9074692
:1035200014E00220FFF786F907460FE00220FFF7BC
:1035300081F907460AE00220FFF77CF9074605E01B
:103540000220FFF777F9074600E000BF00BF07EB56
:103550005500B0FBF5F64FF6F07006EA000806F0ED
:103560000F0948EA0900A060BDE8F087004C004060
:1035700000BCFFBF01464868C0F308007047C1F3B4
:10358000080242607047000010B504462049601AE6
:103590008C4228D006DC1F48204490B1B0F5806FE3
:1035A00033D117E0B0F5806F26D0B0F56C4F2CD139
:1035B00040F20E30FFF70AFA40F20E30FFF7F6F94C
:1035C00024E040F21140FFF701FA40F21140FFF70A
:1035D000EDF91BE040F21240FFF7F8F940F212401B
:1035E000FFF7E4F912E040F21340FFF7EFF940F281
:1035F0001340FFF7DBF909E040F21440FFF7E6F96A
:1036000040F21440FFF7D2F900E000BF00BF10BD48
:10361000004C004000BCFFBFC16841F40051C160D4
:10362000704710B5024602EB9110006801F01F04CC
:103630000123A340184008B1012010BD0020FCE781
:1036400010B500EB9112126801F01F040123A34092
:103650001A4300EB91131A6010BDC1F30443012219
:103660009A40D24300EB91531A60704770B50246FE
:1036700000230024C1F38910105801F01F06012512
:10368000B54000EA050302EB91500068C1F304461F
:103690000125B54000EA050414B10BB1012070BD4D
:1036A0000020FCE7C26822F00402C260C26801F098
:1036B00004031A43C2607047C26822F00802C26065
:1036C000C26801F008031A43C2607047000000009E
:1036D0006E83F9A22915444ED15727FCC0DD34F57D
:1036E000999562DB4190433CAB6351FE0C37000877
:1036F00000000020CC00000078150008D837000832
:10370000CC0000208405000088150008000000009F
:1037100000000000000000000000000000000000A9
:10372000000E270700100140001001400018014062
:10373000001801400100000004000000010000002A
:10374000020000000E061107000200000400000045
:1037500000040000080000000008014000080140CB
:1037600002060206040604060606060600080140D4
:1037700000100140000C014001000000002000008A
:1037800000400000020604060306000001000000DD
:103790000020000000400000000201000D0E06287D
:1037A00028000000000000000000000000000000F1
:1037B0000000000000000000000000000000000009
:1037C00007000000010000000000000000000000F1
:0837D0000000000000000000F1
:0400000508000131BD
:00000001FF
