:020000040800F2
:100000003806002049010008B70400082F04000842
:1000100073040008B50200083D0900080000000054
:10002000000000000000000000000000BF06000803
:100030002D04000800000000BD060008ED070008C0
:100040006301000863010008630100086301000800
:1000500063010008630100086301000863010008F0
:1000600063010008630100086301000863010008E0
:1000700063010008630100086301000863010008D0
:1000800063010008630100086301000863010008C0
:1000900063010008630100086301000863010008B0
:1000A00063010008630100086301000863010008A0
:1000B0006301000863010008630100086301000890
:1000C0006301000863010008630100086301000880
:1000D0006301000863010008630100086301000870
:1000E0006301000863010008630100086301000860
:1000F0006301000863010008630100086301000850
:10010000630100086301000863010008630100083F
:10011000630100086301000863010008630100082F
:10012000630100086301000863010008630100081F
:10013000DFF810D000F0ACF800480047F51C0008CC
:10014000AFF3008038060020064880470648004785
:10015000FEE7FEE7FEE7FEE7FEE7FEE7FEE7FEE777
:10016000FEE7FEE7F50700083101000800F0004255
:1001700030F000400AD0C10D01F56071C0F31600E7
:1001800042EA0151C208400711437047002001466E
:10019000704701F0004330B421F0004150EA010201
:1001A00006D00A0DA2F56072C1F31301002A02DC29
:1001B00030BC00207047440F44EAC104C100E0187D
:1001C00030BC00EBC250AFF300800029A8BF7047DD
:1001D000401C490008BF20F00100704710B4B0FA7D
:1001E00080FC00FA0CF050EA010404BF10BC704718
:1001F00049B1CCF1200421FA04F411FA0CF118BF32
:10020000012121430843A3EB0C01CB1D4FEA006100
:100210004FEA102042BF002010BC704700EBC350D3
:1002200010440029A4BF10BC7047401C490008BFFF
:1002300020F0010010BC7047F0B400F0004221F043
:10024000004120F00040CE0DC30DC1F3160141F472
:100250000001C0F316004C42154640F40000761E23
:1002600009E010EB440002D582F00042404288428F
:10027000F7D840005B1EB342F9DA18B1F0BC002198
:10028000FFF7ACBF2846F0BC704700207047000065
:10029000064C074D06E0E06840F0010394E80700D3
:1002A00098471034AC42F6D3FFF746FF542D0008B0
:1002B000742D000800BFFEE7044880ED000AC0ED81
:1002C000010A80ED021AC0ED031A7047D000002029
:1002D00010B52DED028BB0EE408AB0EE480A03480F
:1002E00000F02AF9BDEC028B10BD0000D000002008
:1002F00010B52DED028B0C4800F00AFAB0EE408AE2
:100300000A48D0ED000AF8EEE00A60EE880AB0EE86
:10031000600A074800F098F8F0EE408AB0EE680AEC
:10032000BDEC028B10BD0000180100202800002049
:100330003800002010B52DED048BB0EE408AFFF799
:10034000D7FF38EE400ADFED0E0A20EE200ADFED7F
:100350000D0A80EE201AF0EE418AB0EE680AFFF72F
:10036000B7FFB0EE409A01F0FFF8F0EE409AF0EEE1
:10037000690AB0EE490A01F0EBFEBDEC048B10BD3A
:1003800000003443DB0F494010B52DED068BB0EE75
:10039000408A9FED1D0AF0EE408A9FED1C0AB0EEE8
:1003A000409A39EE280AC8EE800AF0EE609A1848A2
:1003B00080ED008A90ED000AF0EE000A80EE201A2F
:1003C000B0EE41AAB0EE4A2ADFED121A9FED121AE2
:1003D000DFED110AB0EE000A104800F081F89FED41
:1003E000102ADFED0C1A9FED0C1ADFED0B0AB0EEB0
:1003F000000A0C4800F074F8B0EE690A0A4800F0F0
:1004000019F8BDEC068B10BD0AD7233CCDCCCC3DF2
:10041000080000200050C34700000000D00000206A
:100420000000C842F400002038000020704700BFE0
:10043000FEE7000080ED000ADFED020AC0ED010AD0
:100440007047000000000000F0EE400A90ED001A36
:10045000F7EE001A31EEC11AD0ED011A21EE211A81
:10046000D0ED001A01EEA01AB0EE410A80ED010AAB
:10047000704700BFFEE70000402001490860704758
:100480001018014010B5044622460121880702F0E9
:10049000E6F910BD10B5044622460221480702F0D5
:1004A000DEF910BD10B50446224603214FF080400E
:1004B00002F0D5F910BD704710B5002807DA0A0719
:1004C000140E054A00F00F031B1FD45403E00A0763
:1004D000130E024A135410BD18ED00E000E400E0D2
:1004E00010B52DED068B0446B0EE408AB0EE609A52
:1004F000F0EE418AF0EE619AB0EE42AA84ED008AF5
:1005000084ED019AC4ED028AC4ED039A84ED04AA35
:100510009FED080A84ED050A9FED060A84ED060AA0
:100520009FED040A84ED070A01F044F82062BDEC57
:10053000068B10BD0000000070B52DED068B044643
:10054000B0EE409A01F036F80546206A281A00EE0F
:10055000100AB8EE400ADFED570A20EE200AB0EE8E
:10056000408AB5EEC08AF1EE10FA06D9B6EE000A5E
:10057000B4EEC08AF1EE10FA03DD9FED4F0AB0EE43
:10058000408A94ED000A20EE09AA94ED070AD4ED02
:10059000010A60EE880AB6EE001A60EE810A94ED58
:1005A000051A31EE091AF0EE409A40EE819A94ED68
:1005B000040AB1EE400AB4EEE90AF1EE10FA04DDE5
:1005C00094ED040AB1EE400A0BE094ED040AB4EE97
:1005D000E90AF1EE10FA02D294ED040A01E0B0EE5D
:1005E000690AF0EE409A94ED020AD4ED050A79EE1C
:1005F000600A20EE200AC0EE08AA3AEE290A70EE40
:100600002A8A94ED040AB1EE400AB4EEE80AF1EE4B
:1006100010FA04DD94ED040AB1EE400A0BE094ED0B
:10062000040AB4EEE80AF1EE10FA02D294ED040ADC
:1006300001E0B0EE680AF0EE408A94ED030AB5EEF0
:10064000C00AF1EE10FA29DDD4ED060A78EEE00AD0
:1006500080EE881AB0EE410AD4ED030AF4EEC00A27
:10066000F1EE10FA08D2D4ED060A94ED031A41EE29
:10067000080AF0EE608A10E0D4ED030AF1EE600A99
:10068000F4EEC00AF1EE10FA07DDD4ED060A94ED9F
:10069000031A41EE480AF0EE608A00BFC4ED079AE3
:1006A000C4ED068A84ED059A2562B0EE680ABDECB9
:1006B000068B70BDBD3786356F12833A7047704721
:1006C00090ED010A7047000070B52DED028B0446D5
:1006D000204601F021FC08EE100A9FED0B0AF0EE17
:1006E000408AF8EE480A80EEA80ADFED080A20EEFC
:1006F000200A10EE105A2846FFF738FD41EC100B87
:10070000BDEC028B70BD000000008045DB0FC940CE
:1007100002698168891A01EE101AB8EE411ADFEDFC
:10072000151A21EE211AF0EE410AF5EEC00AF1EE9B
:1007300010FA03D89FED101AF0EE410A90ED011A5D
:10074000D0ED031A31EE611AD0E90512891A01EED3
:10075000901AF8EEE11A9FED092A01EE821A81EE55
:10076000200A90ED011A80ED031A416981618168C8
:1007700001617047BD3786356F12833ADB0FC94080
:1007800010B52DED048B04462046FFF79DFFB0EE1B
:10079000409AF0EE609A51EC190BFFF7FAFC08EE64
:1007A000100A00F007FFA06094ED010A38EE400A3D
:1007B000F0EE408AB0EEE80ADFED0B0AB4EEE00A94
:1007C000F1EE10FA0BDDF5EEC08AF1EE10FA03DD62
:1007D0006069401E606102E06069401C606184EDF8
:1007E000018ABDEC048B10BD7CD9A04010B501F08E
:1007F000A3F810BD1CB54E48006840F470004C4989
:1008000008604C48006840F001004A49086000BF99
:100810004848006800F002000028F9D045484068C8
:1008200000F00C00082866D100BF0020019002E013
:100830000198401C019001985028F9D33D48406828
:100840000090009820F0F0000090009840F08000A8
:1008500000903849009848600020019002E001981B
:10086000401C019001985028F9D33248406800900C
:10087000009820F0F0000090009840F09000009068
:100880002C49009848600020019002E00198401C2B
:10089000019001985028F9D32648406800900098AC
:1008A00020F0F0000090009840F0A0000090214956
:1008B000009848600020019002E00198401C0190DF
:1008C00001985028F9D31B4840680090009820F008
:1008D000F0000090009840F0B0000090154900989A
:1008E00048600020019002E00198401C01900198AE
:1008F0005028F9D300BF0F48406820F003000D498D
:100900004860C82000F08EFE0A4800680A49084086
:10091000084908604FF41F0088600846006820F40A
:100920008020086000204860C86201F053FD1CBDB3
:1009300088ED00E000100240FFFFF6FE00BFFEE77A
:100940004100080218BF04200A0E18BF40F0010041
:100950004FF07F4232EA010108BF40F00200012857
:1009600008BF05207047000010EE101A08B5444A71
:100970006846B2EB410F28D94FF0E640B0EB410F8B
:1009800094BF00204FF0FF3000900098002861DBFA
:1009900060EE000A10F0010F45D010F0020FDFEDFD
:1009A000391A9FED391A00EEE11ADFED381A40EEE0
:1009B000811A21EEA01AF0EE400A40EE010A08BFAB
:1009C000F1EE600AB0EE600A08BD314B21F0004242
:1009D00093423CD911F0004FDFED2E0A20EE201A91
:1009E000DFED2D0A19BF31EE601A71EE200A31EEEB
:1009F000201A71EE600ABDEEE01A11EE100A9FEDAA
:100A0000271A00F0030000EEC10A9FED251A00909E
:100A100000EEC10A9FED231A00EEC10A9FED221AD3
:100A200000EEC10AB1E79FED211A9FED210A10F0F7
:100A3000020F00EE810A9FED1F1A00EE801AB7EE3A
:100A4000000A00EE810A18BFB1EE400A08BD00F0AE
:100A5000CBFC9AE710EE100A4000B0F17F4F3CBF8C
:100A6000B7EE000A08BD07D14FF0010000F076FD97
:100A7000BDE8084000F0A0BCBDE8084000F096BC0E
:100A8000B61F927E336D4C39DA82083CA0AA2ABE8A
:100A9000490E494683F9223F0000004B0000C93F40
:100AA00000A0FD390020A2331A61342CB93AB2BA41
:100AB000CA9F2A3DDDFFFFBE10B52DED028BF0EE83
:100AC000408A18EE900AB0EE608A20F00040C0F133
:100AD000FF40C00F07D118EE100A20F00040C0F10F
:100AE000FF40C00F2BD018EE101A18EE900AFFF737
:100AF000A3FB00EE100A10EE100A6FEAD05010F0BF
:100B0000FF0F04BFBDEC028B10BD18EE900A00F081
:100B1000004110EE100A00F00040814204BFBDEC1D
:100B2000028B10BD18EE101A10EE100ABDEC028BED
:100B300061F31E0000EE900A30EE600A10BD18EE60
:100B4000900A4FF07F41B1EB400F1CBF18EE100A26
:100B50005FEA4000C7D1012000F000FDBDEC028B30
:100B6000BDE8104000F028BC10B510EE100A2DEDC5
:100B7000068BB7EE001A10EE901AB0EE418A0022F2
:100B8000A0F5000CDFEDFE9A4FF00073BCF1FE4FB4
:100B90004FF07F4403EB410C80F0B481BCF1804FF7
:100BA000C0F02082F74901449FEDF73AB1F5005FAC
:100BB00040F2D48200F58021CB0C03F00F0101EE4E
:100BC000901AC3F307137F3BA0EBC350B8EEE12AA2
:100BD00000EE100A1A44DFEDED2AF0EE411A42EE63
:100BE000221AF0EE613A70EE232A30EE632A12EEFA
:100BF000900A00F500606FF30B0001EE900A73EEAF
:100C0000E13A33EE804AC1EE223A22EE230A10EE98
:100C1000100A00F500606FF30B0000EE100A00EE02
:100C2000612A00EE442A62EE232A70EE221A21EE97
:100C3000A12ADFEDD73A02EE233A23EE023A20EE64
:100C4000012A22EE811A03EE211A32EE010A10EE79
:100C5000100A00F500606FF30B0000EE100A72EE50
:100C6000401A31EE812A9FEDCB1A60EE011A9FEDFA
:100C7000CA1A20EE011A9FEDC90A02EE001A31EEDF
:100C8000810A10EE100A00F500606FF30B0000EE11
:100C9000100AC34871EEC01A31EE812A784400EB85
:100CA000C10090ED003AD0ED011A100101EE100ADA
:100CB000F8EEC12A32EE211A31EE001A31EE031A93
:100CC00031EE221A11EE100A00F500606FF30B00EE
:100CD00009EE100A39EE621A31EE431A31EE400A7B
:100CE00030EE610A32EE40AA10EE900A002100F5C3
:100CF00000606FF30B0008EE900A084670EEE8AA59
:100D0000FFF7C3FA29EE280A00F00C01F0EEC00A42
:100D100010EE900AB0F18B4F0DDD10EE900AB4EB9F
:100D2000400F08D310EE100A4FF08B4262F31E0002
:100D300008EE900A13E069EE2A0A38EEAA1A4AEE83
:100D4000010A30EE201A11EE100A00F500606FF370
:100D50000B0008EE900A30EE680A70EE209A0C2024
:100D6000FFF793FA38EEA90AB5EEC00AF1EE10FAD1
:100D700034BFFEEE000AF6EE000A30EE800ABDEE49
:100D8000C00A10EE100A011100EE101AF8EEC00AA7
:100D900000EE100AB8EEC00A38EEC00A30EE290A9A
:100DA000DFED801A9FED801A00EE211ADFED7F1A29
:100DB0007F4900F00F0040EE011A21EE800A7944CD
:100DC00001EB800191ED001A7A49794401EB800131
:100DD000D1ED001A784901EE801A794401EB8000C8
:100DE000764990ED000A31EE001AB0EEE00A10EEFE
:100DF000100A884215DA10EE100AB4EB400F10D337
:100E00009FED6F0A30EE800ADFED6E0A20EE200AB9
:100E100068EE010ABDEC068BBCEEC00A20EE200A8B
:100E200010BD10EE100A6849884243DA10EE100A2D
:100E3000B4EB400F3ED3BDEEE00A68EE010A10EEBF
:100E4000100A00EBD0725110C90501F17E5100EE7D
:100E5000101AA0EB6200C00560EE200A00F17E507F
:100E600000EE100A60EE808A18EE900AB4EB400F94
:100E70000FD1022000F072FB00F0A6FA10EE101A5B
:100E800018EE100ABDEC068B61F31E0000EE100A8E
:100E900010BD18EE900A400011D018EE900AFFF72E
:100EA0004FFD042808BF00F097FAB0EE680ABDECC9
:100EB000068B10BDF5EEC00AF1EE10FA0FD202203B
:100EC00000F04CFB00F088FA10EE101A18EE100A31
:100ED000BDEC068B61F31E0000EE100A10BD02206F
:100EE00000F03CFB00F070FA10EE101AB0EE480A69
:100EF00010EE100ABDEC068B61F31E0000EE100A26
:100F000010BD00BFBCF1804F6CD300BF00F1FF43A8
:100F1000B3F1FE4F24D200BFB0EEC00A10EE100AAB
:100F2000C1F3C7537F2B0DDB972BBFF63BAEC3F14D
:100F300096034FF0010C0CFA03F3A3F1010C1CEA29
:100F4000010F08D0012000F009FBBDEC068BBDE8C5
:100F5000104000F031BA0B4218BFBFEE008A21E604
:100F600043001CBF4FF08073B3EB400F34D96FF0D8
:100F70001A02DFED161A20EE210A10EE100A27E001
:100F800000000000001080C0ABAAAA3E0000803D17
:100F90007EE24C3E00B03842D49AB8BB3BAA3842FD
:100FA000541F0000FC596337C9FF753A1872313D70
:100FB000F21E0000261F0000961E00000000FC42EA
:100FC0000000FE420000004B000040430000004DC6
:100FD00010F0004FA0D1E5E5A0F50003B3F1FE4FFE
:100FE00021D2DFE503EB4103B3F1007F11D3F5EE2E
:100FF000C00AF1EE10FA05D1430018BFB4EB400F60
:1010000076D883E701F0004141F0FC5100EE901AE0
:101010007CE7B3F1807F06D210EE903AA3F500038F
:1010200000EE903A72E720F000426FF0FF4C604C07
:1010300002EB0C03A34210D321F000439C44A445CF
:101040000BD3B0F17E5F18BF5FEA410C50D0B2F114
:10105000FF4F98BFB3F1FF4F05D9BDEC068BBDE83C
:10106000104000F0A6B9B0F1FF4F0FD0C1F3C75246
:101070007F2A09DB972A11DAC2F19602012303FACB
:1010800002F2531E0B4205D0002208E011F0004F7F
:1010900055D128E00A4218BF012200D1022210F5E2
:1010A000000F13D028B3B0F1004F26D010F1814FBC
:1010B0004FD04FF0FE42B2EB400F94BF0120002012
:1010C000012202EBE171884239D10CE011F0004FAE
:1010D00002D0012A38D032E0012A02BF9FED350A42
:1010E000BDEC068B10BD9FED340ABDEC068B10BD28
:1010F0002FE011F0004F0CD121E0B1F1FF4F1ED0D5
:1011000011F5000F05D011F0004F15D00AB1012ADA
:1011100008D0022000F022FABDEC068BBDE810409A
:1011200000F03AB9022000F019FA00F035F9BDECF0
:10113000068BB1EE400A10BD0AB1012A04D0B0EE10
:10114000690ABDEC068B10BDBDEC068B9FED1B0A3A
:1011500010BDBDEC068BB7EE000A10BD30EE410AA3
:10116000B5EE001A9FED172A00EE413AB6EE001ACE
:1011700060EE001A00EE431A61EEC11A9FED101ADC
:1011800020EE011A20EE020A9FED0F2A01EE820ADC
:1011900071EE001A11EE900A00F500606FF30B007B
:1011A00009EE100A31EE491A31EE00AA9CE5000062
:1011B000FFFF3F00000080FF0000807F00000080F4
:1011C00000B0B841D49A38BB3BAAB84100B510EE84
:1011D000101A2DED028B81B0524A6846B2EB410FD6
:1011E0002ED94FF0E640B0EB410F94BF00204FF0F6
:1011F000FF3000900098B0EE408A00286ADB10F0C3
:10120000010F4BD068EE080A9FED471A9FED470A81
:1012100000EE810A9FED461A10F0020F00EE801AD0
:10122000B7EE000A00EE810A02BF01B0BDEC028BEE
:1012300000BD00BF01B0B1EE400ABDEC028B00BDA5
:101240003C4B21F00042934241D911F0004FDFEDB9
:101250003A0A20EE201ADFED390A19BF31EE601A82
:1012600071EE200A31EE201A71EE600ABDEEE01A2E
:1012700011EE100A9FED321A00F0030000EEC10AD1
:101280009FED301A009000EEC10A9FED2F1A00EE7C
:10129000C10A9FED2E1A00EEC10AABE728EE080A3C
:1012A0009FED2B1ADFED2B0A10F0020F40EE410AE2
:1012B0009FED291A00EE201A61EE000AB0EE480AEE
:1012C00008EE200AB6D101B0BDEC028B00BD00F0E3
:1012D0008BF88FE718EE100A4000B0F17F4F0DD267
:1012E00018EE100AFFF72CFB042808BF00F074F872
:1012F000B0EE480A01B0BDEC028B00BD09D101205F
:1013000000F02CF901B0BDEC028B5DF804EB00F0AD
:1013100053B801B0B0EE480ABDEC028B5DF804EBA7
:1013200000F044B8B61F927EB93AB2BACA9F2A3DBD
:10133000DDFFFFBE490E494683F9223F0000004B06
:101340000000C93F00A0FD390020A2331A61342CEF
:10135000336D4C39DA82083CA0AA2ABE10B52DEDB7
:10136000028BB1EEC08A18EE100A20F00040C0F1E6
:10137000FF40C00F0AD010EE100A20F00040C0F16C
:10138000FF40C00F04BF012000F0E8F8B0EE480AAB
:10139000BDEC028B10BD0000DFED030AB7EE001AB2
:1013A00081EE200A704700000000000030EE000AC5
:1013B000704730EE200A7047DFED020A80EEA00A87
:1013C00070470000000000009FED020A20EE000AB6
:1013D00070470000000000709FED020A20EE000A36
:1013E00070470000000000102DE9F0014FF07F422F
:1013F000B2EB410F9FBF4FF0FF310160BDE8F0013C
:1014000070474FF0004242EA0123C1F3C752783AD5
:10141000551112F01F0C434CCCF120067C44C1F353
:10142000C752A2F178024FEA621204EB820254F82A
:10143000254008BFD2E9015612D0556804FA0CF4D1
:1014400025FA06F73C43976805FA0CF527FA06F8E3
:10145000D26807FA0CFCF24045EA08054CEA02069D
:10146000A4FB034CA5FB0352A6FB03631D449D4252
:1014700034BF012600261319334416B1934202D912
:1014800003E0934201D2012200E00022624402F113
:10149000200C9206DC0C42EA443200EE102A5B0378
:1014A000DFED210AF8EEC01A00EE103A4FEA9C1C5C
:1014B00011F0004FB8EE400AC0F800C020EE201A2C
:1014C00000EE105ADFED190AB8EE400A20EE200AAD
:1014D00071EE810A70EE800A10EE902A02F5006229
:1014E0006FF30B0200EE902A70EEE11A31EEC11A92
:1014F000DFED101A30EE411A9FED0D0A20EE800A42
:1015000001EE210A9FED0C1A00EE810A04BFBDE82E
:10151000F0017047CCF180510160BDE8F001B1EEFF
:10152000400A704714190000000000360000802CAB
:1015300022AAFD29DB0FC92F0000C92F02E008C82D
:10154000121F08C1002AFAD170477047002001E03D
:1015500001C1121F002AFBD1704700000149086039
:1015600070470000CC00002010B52DED028B0D4817
:10157000FFF7A6F80C4800680C490968484300EEDC
:10158000900AB8EEE01A0A48D0ED000A51EE000ABF
:10159000B0EE608AB0EE480A00F026F8BDEC028B8F
:1015A00010BD0000180100202800002024000020A9
:1015B0002000002000BF0A4801684FF0E020826947
:1015C000074800688142F6D10648801A4823B0FBDC
:1015D000F3F001EB4103C3EBC11300EBC300704711
:1015E000040000204019010010B52DED028BF0EE33
:1015F000408ADFED0B0AB0EE680AFFF75DFAB0EE45
:10160000408AB5EEC08AF1EE10FA04DBB0EE480A6B
:10161000BDEC028B10BD9FED020A38EE000AF7E721
:10162000DB0FC94008B50021009102E00099491C78
:10163000009100EB8001009AB2EB410FF6D308BD98
:1016400010B500F067F90446C4F3401010BD000067
:1016500010B540F2036000F02FFC40F2157000F06E
:101660002BFC402303221C210E4800F0E3F98023C9
:1016700003221C210B4800F0DDF900220A490B4827
:1016800000F046FA00231A461946084800F019FBF4
:10169000064800F0E4FA4FF48061044800F028FAAC
:1016A00010BD0000000C014000350C00005400404B
:1016B00010B52DED028B00F007F808EE100AB8EE19
:1016C000480ABDEC028B10BD10B50E2000F080F86A
:1016D00010BD000070B50446002500BF40F2016156
:1016E0003A4800F0D5FA0028F8D1384800F0F7FA67
:1016F00000BF4FF4A061354800F0CAFA0028F8D0C6
:101700006FF001026C21314800F0D1FA00BF40F2C5
:1017100001512E4800F0BCFA0028F8D040F20151E7
:101720002A4800F0A1FA00BF40F20751274800F014
:10173000AFFA0128F8D12146244800F08DFA00BF05
:1017400040F20251214800F0A3FA0028F8D01F48C7
:1017500000F0C5FA00BF4FF4A0611C4800F098FAF1
:101760000028F8D001226C21184800F0A0FA0021CE
:10177000164800F0BDF900BF40F20151134800F0D7
:1017800087FA0028F8D040F20151104800F06CFAB6
:101790000E4800F0A9FA00BF40F206510B4800F0D5
:1017A00077FA0028F8D0094800F052FA054600BF41
:1017B0000648006800F400700028F9D14FF48061F9
:1017C000024800F095F9284670BD00000054004022
:1017D0002DE9F041064600BF40F201614C4800F09F
:1017E00057FA0028F8D14FF40061494800F088F911
:1017F000474800F074FA00BF4FF4A061444800F07D
:1018000047FA0028F8D06FF001026C21404800F040
:101810004EFA00BF40F201513D4800F039FA00286D
:10182000F8D040F201513A4800F01EFA00BF40F2F1
:101830000751374800F02CFA0128F8D1344800F05D
:101840000EFA3146324800F007FA00BF40F202516A
:101850002F4800F01DFA0028F8D02D4800F03FFA7C
:1018600000BF4FF4A0612A4800F012FA0028F8D017
:1018700001226C21264800F01AFA0021244800F0C9
:1018800037F900BF40F20151214800F001FA002869
:10189000F8D040F201511E4800F0E6F900BF40F2D6
:1018A00002511B4800F0F4F90028F8D0184800F065
:1018B0001BFA00BF40F20651154800F0E9F9002874
:1018C000F8D0134800F0C4F9044600BF40F20651B6
:1018D0000F4800F0DDF90028F8D00D4800F0B8F905
:1018E000054600BF0A48006800F400700028F9D1DE
:1018F0004FF48061064800F0FBF80021044800F036
:10190000FFF845EA0427C7F30B00BDE8F0810000AB
:101910000054004010B50B20FFF7DCFE10BD0000A6
:1019200064214143034A116000BF0249096800294C
:10193000FBD17047000000200448006820B1034834
:101940000068401E01490860704700000000002048
:1019500070B5054600241D48854200D103E01C48AF
:10196000854200D101241B4931F8140000F0A4FA8B
:10197000194931F8140000F09FFA184951F8243041
:10198000174951F824000322182100F053F8154993
:1019900051F82430124951F824000322042100F0A8
:1019A00049F8284601F0B6F84FF4E131284601F035
:1019B00069F80421284601F009F90821284601F0B8
:1019C0000FF9284601F0EEF870BD00000038014024
:1019D00000440040880000206C00002070000020BF
:1019E000800000207800002010B540F2026000F076
:1019F00063FA40F2036000F05FFA40F2066000F024
:101A00005BFA4FF4E06303221821084800F012F853
:101A10000E2303221821054800F00CF8FC230322B2
:101A20001021034800F006F810BD00000008014036
:101A300000180140F0B5044616460025002201F0CA
:101A40000F0501F0100747B1042E05D145F003053D
:101A5000E76B1F43E76300E0354300201EE00127EA
:101A600087401F40C7B122684FEA800C0F2707FA52
:101A70000CF7BA43870005FA07F73A43282904D13F
:101A8000012787401F40676105E0482903D10127EE
:101A900087401F4027612260471CB8B20828DED368
:101AA000082022E0012787401F40E7B16268A0F1CB
:101AB00008074FEA870C0F2707FA0CF7BA43A0F183
:101AC0000807BF0005FA07F73A43282904D1012780
:101AD00087401F40676105E0482903D101278740FF
:101AE0001F4027616260471CB8B21028DAD3F0BDEE
:101AF0000A460021016821F48061114301607047AA
:101B00000A460021016821F4006111430160704719
:101B10002DE9F05F04460E4692460EB900BFFEE77F
:101B2000022000F01DF907464648B7FBF0F8B8F16F
:101B30003C0F01D34FF03C08D4F804B02BF07F0BDE
:101B40004BEA080BC4F804B03F4886421ED83D4813
:101B5000B7FBF0F000F10109B9F13C0F02D33C20D2
:101B6000206207E0B9F1020F02D80220206201E0F2
:101B7000C4F820907000B7FBF0F5042D00D20425C6
:101B8000E069C5F30B010843E06158E02F48864245
:101B90002CD84FF4967008FB00F04FF47A71B0FB2C
:101BA000F1F0401C2062BAF1000F08D106EB4600AC
:101BB000B7FBF0F5E06920F48040E06109E006EB56
:101BC000C60000EB0610B7FBF0F5E06940F480407A
:101BD000E061C5F30B0008B945F00105E06940F488
:101BE0000040E061E0692843E06128E0C8EB0810AC
:101BF000C0004FF47A71B0FBF1F0401C2062BAF1E2
:101C0000000F08D106EB4600B7FBF0F5E06920F4C1
:101C10008040E06109E006EBC60000EB0610B7FB70
:101C2000F0F5E06940F48040E061E06940F4004094
:101C3000E061E0692843E0610120C4F89000BDE85C
:101C4000F09F000040420F00A0860100801A0600AD
:101C500001460869C0B27047CAB2026170470168A4
:101C600041F001010160704710B540F2015291420C
:101C700002D1426982690AE000EB9112126801F018
:101C80001F040123A3409A4300EB91131A6010BD77
:101C900010B5024602EB9110006801F01F04012309
:101CA000A340184008B1012010BD0020FCE712F14C
:101CB000020F02D121F0010101E041F001010161B7
:101CC000704730B50C460021016821F00201214324
:101CD0000160C3F3090342EA0305856030BD016872
:101CE00041F4807101607047016841F40071016046
:101CF0007047000000F072FBFFF776FE1448FFF714
:101D000027FEFEF7B9FBFFF7A3FC4FF4FA70FFF7CD
:101D100007FEFFF795FC00F0E2FD00BF06210C482E
:101D200000F045FF0028F9D0DFED0A1A9FED091AEF
:101D3000DFED080A9FED080AFEF7BEFAB2EE080AC8
:101D4000FEF722FB03E09FED050AFEF7F3FAFAE740
:101D500000380140000000000AD7A33B0000FA430E
:101D60002DE9F04F8CB0074600200A904AA090E879
:101D7000004CC068CDE905BECDF810A007900FF269
:101D80001C1ADAE9000ACDE9020A0FF2101ADAE9A0
:101D9000000ACDE9000A44484068C0F381000B9076
:101DA0000B9820B1012804D002283FD103E03F4A1C
:101DB0003EE03E4A3CE03C48406800F4803CBCF5D4
:101DC000803F12D13848C06A00F08048B8F1000F57
:101DD00001D1364B00E0364B3348406800F40039FF
:101DE000B9F5003F02D15B0800E0324B2E48406855
:101DF000C0F383412C48406800F0006008B141F016
:101E000010012948406800F0804008B141F02001ED
:101E10000F2901D2891C06E00F2903D33E2901D8DE
:101E2000491C00E03F2103FB01F201E01F4A00BF13
:101E300000BF1D484068C0F3031504A8465D22FAA0
:101E400006F419484068C0F3022502A8465D24FA4A
:101E500006F0099014484068C0F3C2251DF80560DB
:101E600024FA06F0089037B1012F06D0022F06D0D1
:101E7000032F0AD106E00A9208E00A9406E00998C6
:101E80000A9003E008980A9000E000BF00BF0A989B
:101E90000CB0BDE8F08F0000000000000000000062
:101EA00001020304060708090010024000127A002C
:101EB000006CDC0200093D00064A02EB9011096843
:101EC00000F01F0301229A401143024B03EB9012D2
:101ED0001160704700100240064A02EB9011096839
:101EE00000F01F0301229A409143024B03EB901232
:101EF0001160704700100240064A02EB9011096819
:101F000000F01F0301229A401143024B03EB901291
:101F100011607047001002402DE9F05F2DED028B3B
:101F200083460C240427FFF7C3FBBCEEC00A10EE67
:101F3000100A85B200EE104AF8EEC00AB0EE000AB0
:101F4000FEF712FEB0EE408AA4EB0708022000FA6A
:101F500008F0401E00F0FF090220B840401E00F0CB
:101F6000FF0A09EA152605EA0A0000FA08F03044DB
:101F700086B23046BDEC028BBDE8F09F10B52DED6A
:101F8000068BB0EE408AF0EE608AB0EE419AB5EE74
:101F9000C08AF1EE10FA02D29FED670A0CE06748A2
:101FA00090ED000AB4EEC08AF1EE10FA02DD90ED79
:101FB000000A01E0B0EE480A614880ED000AF5EE43
:101FC000C08AF1EE10FA02D29FED5B0A0CE05B488A
:101FD00090ED000AF4EEC08AF1EE10FA02DD90ED09
:101FE000000A01E0B0EE680A564880ED000AB5EE3E
:101FF000C09AF1EE10FA02D29FED4F0A0CE04F4862
:1020000090ED000AB4EEC09AF1EE10FA02DD90ED08
:10201000000A01E0B0EE490A4B4880ED000A47484B
:1020200090ED000AC8EE000AF5EEC00AF1EE10FAD3
:1020300002D29FED410A13E0404890ED000AC8EE3D
:10204000000AB7EE000AF4EEC00AF1EE10FA02DD63
:10205000B7EE000A04E03948D0ED000A88EE200A05
:10206000F0EE409A354890ED000AC8EE800AF5EE91
:10207000C00AF1EE10FA02D29FED2F0A13E02F48AA
:10208000D0ED000A88EEA00AF7EE000AB4EEE00AEE
:10209000F1EE10FA02DDB7EE000A04E02748D0EDB9
:1020A000000A88EEA00AB0EE40AA244890ED000A8B
:1020B000C9EE000AF5EEC00AF1EE10FA02D29FED69
:1020C0001E0A13E01D48D0ED000A89EE200AF7EE43
:1020D000000AB4EEE00AF1EE10FA02DDB7EE000AF3
:1020E00004E01648D0ED000A89EE200AF0EE40AA7E
:1020F0009FED160A29EE800ABCEEC00A10EE101AF7
:1021000088B2FEF7BFF99FED110A2AEE000ABCEE75
:10211000C00A10EE101A88B2FEF7BCF99FED0B0A48
:102120002AEE800ABCEEC00A10EE101A88B2FEF742
:10213000B9F9BDEC068B10BD0000000008000020BE
:1021400014000020180000201C00002000007F4325
:1021500010B52DED028BB0EE408AF0EE608A4F484C
:10216000FEF70EFB4E4890ED000AF1EE400AB0EE8D
:10217000001A80EE810AB4EEC80AF1EE10FA08DD0A
:1021800090ED000AF1EE400AB0EE001A80EE810AEE
:1021900014E04348D0ED000AB0EE001A80EE810A48
:1021A000B4EEC80AF1EE10FA06D2D0ED000AB0EE95
:1021B000001A80EE810A01E0B0EE480AB0EE408AD3
:1021C000B0EE680AFFF710FAF0EE408AB0EE680A47
:1021D000FEF7FCFFF1EE480A20EE200A314880EDC0
:1021E000000AB0EE680AFEF7BFFB20EE080A2E4890
:1021F00080ED000A2A48D0ED000AB0EE001A80EE09
:10220000810A2848D0ED000A30EE200A274880EDE8
:10221000000AB0EE080AFFF7A1F8234890ED001A73
:102220002048D0ED000A50EE010AB0EE001A80EE10
:10223000810A1B48D0ED000AB0EE001AC0EE811AE8
:1022400030EE210A1A4880ED000AB0EE080AFFF7C6
:1022500085F8154890ED001A1248D0ED000A50EEAE
:10226000410AB0EE001A80EE810A0D48D0ED000A56
:10227000B0EE001AC0EE811A30EE210A0D4880ED52
:10228000000A90ED001A0A48D0ED000A074890EDC8
:10229000000AFFF773FEBDEC028B10BD1801002091
:1022A000080000200C000020100000201400002076
:1022B000180000201C00002008B500200021414A21
:1022C000126842F480323F4B1A6000BF401C3D4A06
:1022D000126802F4003119B94FF6FF729042F5D13D
:1022E000384A126802F400320AB900BFFEE7354AE4
:1022F000D26942F08052334BDA61334A126842F4B9
:102300004042314B1A602F4A52682E4B5A601A468F
:1023100052685A601A46526842F480625A601A46FD
:10232000526822F440325A601A46526842F44032EF
:102330005A601A465268254B1A40224B5A601A4678
:102340005268234B1A431F4B5A601A46126842F0D8
:1023500080721A6000BF1B4A126802F00072002AE5
:10236000F9D0194A126842F48032174B1A6000BF44
:10237000154A526802F48032002AF9D0124A1268D3
:1023800042F40032104B1A6000BF0F4A526802F448
:102390000032002AF9D00B4A52680092009A22F0CB
:1023A00003020092009A42F002020092054B009A4A
:1023B0005A6000BF034A526802F00802002AF9D0AE
:1023C00008BD00000010024000700040FFFFC3B7CE
:1023D0000000340810B5FFF76FFF10BD10B51148AD
:1023E00000681149B0FBF1F4601EB0F1807F01D3A9
:1023F00001200FE0601E4FF0E02148610F214FF0F7
:10240000FF30FEF759F800204FF0E02188610720E7
:102410000861002008B100BFFEE70021481EFEF75A
:102420004BF810BD48000020A086010000B587B021
:1024300040F20B60FFF740FD364800F057FA772076
:10244000ADF800000020ADF80200ADF804004FF434
:10245000FA7002900020ADF806008DF80C00694675
:102460002C4800F0B7FA0120ADF810000020ADF8BC
:102470001200ADF81400ADF81600ADF81800ADF874
:102480001A0004AA0021234800F0C6F804AA01217A
:10249000204800F0C1F804AA02211E4800F0BCF850
:1024A000FA2200211B4800F0DAF9FA22012119482A
:1024B00000F0D5F9FA220221164800F0D0F9602286
:1024C0000021144800F09EF960220121114800F01B
:1024D00099F9602202210F4800F094F90022114678
:1024E0000C4800F0CFF9002201210A4800F0CAF997
:1024F00000220221074800F0C5F90121054800F03B
:10250000B5FA044800F082F8024800F05DFA07B01E
:1025100000BD0000002C014000B587B04FF4E06022
:10252000FFF7CAFC4FF0804000F0E0F97720ADF8EB
:1025300000000020ADF80200ADF804004FF4FA707E
:1025400002900020ADF806008DF80C0069464FF0AF
:10255000804000F03FFA0120ADF810000020ADF8F7
:102560001200ADF81400ADF81600ADF81800ADF883
:102570001A0004AA03214FF0804000F04DF804AA8D
:102580000121880700F048F804AA0221480700F05A
:1025900043F8FA220321500700F061F9FA220121E1
:1025A000880700F05CF9FA220221480700F057F989
:1025B000602203214FF0804000F024F960220121C5
:1025C000880700F01FF960220221480700F01AF97D
:1025D000002203214FF0804000F054F90022012135
:1025E000880700F04FF900220221480700F04AF95D
:1025F0000121880700F03AFA4FF0804000F006F819
:102600004FF0804000F0E0F907B000BD016841F0F4
:10261000800101607047000010B531B101293FD041
:1026200002297DD003297CD1BFE0036A23F0010396
:102630000362836923F003038361036A14882343DD
:102640000362036A23F002030362036A948823434C
:1026500003626A4B984202D0694B98421FD1036AC9
:1026600023F004030362036A548823430362036A6A
:1026700023F008030362036AD48823430362436898
:1026800023F48073436043681489234343604368A1
:1026900023F4007343604368548923434360ABE0F1
:1026A000036A23F010030362836923F44073836198
:1026B000036A148843EA04130362036A23F02003C5
:1026C0000362036A948843EA041303624B4B984203
:1026D00002D04B4B984226D1036A23F04003036299
:1026E000036A548843EA04130362036A23F08003F5
:1026F0000362036AD48843EA04130362436823F441
:10270000806343604368148943EA840343604368F9
:1027100023F4006343604368548943EA840301E07F
:1027200002E068E0436067E0036A23F480730362B9
:10273000C36923F00303C361036A148843EA0423D3
:102740000362036A23F400730362036A948843EA12
:1027500004230362294B984202D0294B984223D18B
:10276000036A23F480630362036A548843EA042300
:102770000362036A23F400630362036AD48843EAB2
:1027800004230362436823F480534360436814893D
:1027900043EA04134360436823F4005343604368EF
:1027A000548943EA0413436026E0036A23F4805308
:1027B0000362C36923F44073C361036A148843EA64
:1027C00004330362036A23F400530362036A9488A8
:1027D00043EA04330362094B984202D0084B984203
:1027E00008D1436823F4804343604368148943EA73
:1027F0008413436000E000BF00BF10BD002C014007
:102800000034014031B101290CD0022913D0032931
:1028100022D118E0836923F0700383618369134335
:1028200083611AE0836923F4E0438361836943EAA7
:102830000223836111E0C36923F07003C361C3699C
:102840001343C36109E0C36923F4E043C361C3696F
:1028500043EA0223C36100E000BF00BF704731B10B
:10286000012906D0022906D0032908D105E04263D8
:1028700006E0826304E0C26302E0026400E000BF9D
:1028800000BF704731B101290CD0022913D00329B0
:1028900022D118E0836923F008038361836913431D
:1028A00083611AE0836923F400638361836943EAE7
:1028B0000223836111E0C36923F00803C361C36984
:1028C0001343C36109E0C36923F40063C361C369AF
:1028D00043EA0223C36100E000BF00BF704710B5A8
:1028E000FFF7A4FDFFF718FE10BD000010B5044669
:1028F0003349601A8C4244D00CDCB4F1804F1CD0B8
:102900003048204410B3B0F5806F28D0B0F5006F88
:1029100052D12DE0B0F5806F3CD0B0F58E3F03D0A2
:10292000B0F5923F48D13EE040F20B30FFF7E4FAB9
:1029300040F20B30FFF7D0FA3FE04FF48060FFF732
:10294000DBFA4FF48060FFF7C7FA36E040F201404F
:10295000FFF7D2FA40F20140FFF7BEFA2DE040F255
:102960000240FFF7C9FA40F20240FFF7B5FA24E04F
:1029700040F20340FFF7C0FA40F20340FFF7ACFA21
:102980001BE040F20440FFF7B7FA40F20440FFF7C3
:10299000A3FA12E040F20540FFF7AEFA40F205401C
:1029A000FFF79AFA09E040F20D30FFF7A5FA40F27E
:1029B0000D30FFF791FA00E000BF00BF10BD00002E
:1029C0000010004000FCFFBF016841F00101016000
:1029D000704700000A8882621D4A90420ED0B0F112
:1029E000804F0BD01B4A904208D01B4A904205D022
:1029F0001A4A904202D01A4A90420BD1026822F041
:102A00007002026002684B881A43026002688B8879
:102A10001A4302608A68C262124A90420AD0124A7D
:102A2000904207D0026822F4407202600268CB88AC
:102A30001A430260064A904202D0094A904201D1EC
:102A40000A7B0263426942F0010242617047000062
:102A5000002C01400004004000080040000C004031
:102A6000003401400010004000140040012904D14E
:102A7000426C42F40042426403E0426C22F40042A1
:102A8000426470472DE9F04704460D460027B846DA
:102A9000B94600261D49601A8C421CD006DC1C4831
:102AA000204470B1B0F5806F1FD10FE0B0F5806F9A
:102AB00016D0B0F56C4F18D10320FFF751F9074637
:102AC00014E00220FFF74CF907460FE00220FFF761
:102AD00047F907460AE00220FFF742F9074605E0FA
:102AE0000220FFF73DF9074600E000BF00BF07EBFB
:102AF0005500B0FBF5F64FF6F07006EA000806F058
:102B00000F0948EA0900A060BDE8F087004C0040CA
:102B100000BCFFBF10B504462049601A8C4228D083
:102B200006DC1F48204490B1B0F5806F33D117E028
:102B3000B0F5806F26D0B0F56C4F2CD140F20E303E
:102B4000FFF7DAF940F20E30FFF7C6F924E040F261
:102B50001140FFF7D1F940F21140FFF7BDF91BE03A
:102B600040F21240FFF7C8F940F21240FFF7B4F903
:102B700012E040F21340FFF7BFF940F21340FFF7B5
:102B8000ABF909E040F21440FFF7B6F940F2144007
:102B9000FFF7A2F900E000BF00BF10BD004C0040ED
:102BA00000BCFFBFC16841F40051C160704710B55F
:102BB000024602EB9110006801F01F040123A340BC
:102BC000184008B1012010BD0020FCE7C26822F0C7
:102BD0000402C260C26801F004031A43C260704775
:102BE000C26822F00802C260C26801F008031A43FA
:102BF000C260704700000000000000000000B33F0A
:102C0000B2BE7D3A00002E40DFCF513800007E403A
:102C1000BF51FABA00E0A44019DAC3BA00E0C840D4
:102C2000C2ED8AB90040EB40CD1F2CBA001006411E
:102C30002AFFFABA00C01541DFCFD13700D02441B6
:102C40009A97703A0050334189478E36004041418F
:102C5000E75B9D3800B04E41C00A98B900A05B41C7
:102C6000558F943A00306841DA92C0BA00407441FE
:102C700062B3C63A0000803F00A0853F00908B3FC2
:102C800000C0913F0030983F00F09E3F00F0A53F0C
:102C90000050AD3F0000B53F0000BD3F0060C53FA4
:102CA0000020CE3F0040D73F00C0E03F00C0EA3FD9
:102CB0000020F53F000000007D36AC397D3C3839FE
:102CC000EBDCF438320A7E39124C26399B6AED3936
:102CD000A4EE83397F661E39F6398A392B4265396D
:102CE000A48211395B991F39C3EECD39DDE7C637B0
:102CF000A5A22F390000803FC3AA853FC2958B3F14
:102D0000D3C3913FF037983F32F59E3FD7FEA53FA2
:102D10003F58AD3FF304B53FA408BD3F2A67C53F08
:102D20008C24CE3FFD44D73FDFCCE03FC7C0EA3F15
:102D30007D25F53F000000006E83F9A22915444E61
:102D4000D15727FCC0DD34F5999562DB4190433CB7
:102D5000AB6351FE742D000800000020D00000007D
:102D60003C150008442E0008D00000206805000033
:102D70004C150008000000000000000000000000EA
:102D80000000000000000000000000000000000043
:102D90000000000000000000010000000100000031
:102DA00020000000210000001900000000000000C9
:102DB000000000000000000000000000000E2707D7
:102DC00000100140001001400018014000180140AF
:102DD00001000000040000000100000002000000EB
:102DE0000E061107000200000400000000040000AD
:102DF0000800000000080140000801400206020629
:102E000004060406060606060008014000100140FC
:102E1000000C014001000000002000000040000004
:102E20000206040603060000010000000020000066
:102E300000400000000201000D0E062828000000DE
:042E4000000000008E
:0400000508000131BD
:00000001FF
