:020000040800F2
:10000000280600204901000867050008DF040008F1
:100010002305000851030008750A000800000000CD
:100020000000000000000000000000006F07000852
:10003000DD040008000000006D0700081509000835
:100040006301000863010008630100086301000800
:1000500063010008630100086301000863010008F0
:1000600063010008630100086301000863010008E0
:1000700063010008630100086301000863010008D0
:1000800063010008630100086301000863010008C0
:1000900063010008630100086301000863010008B0
:1000A00063010008630100086301000863010008A0
:1000B0006301000863010008630100086301000890
:1000C0006301000863010008630100086301000880
:1000D0006301000863010008630100086301000870
:1000E0006301000863010008630100086301000860
:1000F0006301000863010008630100086301000850
:10010000630100086301000863010008630100083F
:10011000630100086301000863010008630100082F
:10012000630100086301000863010008630100081F
:10013000DFF810D000F0FAF800480047A1170008D7
:10014000AFF3008028060020064880470648004795
:10015000FEE7FEE7FEE7FEE7FEE7FEE7FEE7FEE777
:10016000FEE7FEE72D090008310100082DE9F05FE8
:100170000546002092469B46884606468146402416
:100180001BE0284641464746224600F05EF85346AB
:100190005A46C01A914110D311461846224600F023
:1001A00045F82D1A67EB01084F4622460120002131
:1001B00000F03CF817EB00094E41201EA4F10104A9
:1001C000DFDC484631462A464346BDE8F09F00F052
:1001D000004230F000400AD0C10D01F56071C0F35B
:1001E000160042EA0151C20840071143704700203F
:1001F0000146704701F0004330B421F0004150EA5D
:10020000010206D00A0DA2F56072C1F31301002AA3
:1002100002DC30BC00207047440F44EAC104C10036
:10022000E01830BC00EBC25000F01FB8202A04DBFD
:10023000203A00FA02F1002070479140C2F12003F9
:1002400020FA03F3194390407047202A04DB203A38
:1002500021FA02F00021704721FA02F3D040C2F1E6
:10026000200291400843194670470029A8BF7047F3
:10027000401C490008BF20F00100704710B4B0FADC
:1002800080FC00FA0CF050EA010404BF10BC704777
:1002900049B1CCF1200421FA04F411FA0CF118BF91
:1002A000012121430843A3EB0C01CB1D4FEA006160
:1002B0004FEA102042BF002010BC704700EBC35033
:1002C00010440029A4BF10BC7047401C490008BF5F
:1002D00020F0010010BC7047F0B400F0004221F0A3
:1002E000004120F00040CE0DC30DC1F3160141F4D2
:1002F0000001C0F316004C42154640F40000761E83
:1003000009E010EB440002D582F0004240428842EE
:10031000F7D840005B1EB342F9DA18B1F0BC0021F7
:10032000FFF7ACBF2846F0BC70470000064C074DF5
:1003300006E0E06840F0010394E8070098471034B5
:10034000AC42F6D3FFF7F8FE5026000870260008EE
:1003500000BFFEE7044880ED000AC0ED010A80ED11
:10036000021AC0ED031A7047C400002010B52DED2D
:10037000028BB0EE408AB0EE480A034800F034F930
:10038000BDEC028B10BD0000C400002010B52DEDA7
:10039000028B0C4800F012FAB0EE408A0A48D0ED09
:1003A000000AF8EEE00A60EE880AB0EE600A07483C
:1003B00000F0A2F8F0EE408AB0EE680ABDEC028BC5
:1003C00010BD00000C010020280000202C0000209F
:1003D00010B52DED048BB0EE408AFFF7D7FF38EE55
:1003E000400ADFED0E0A20EE200ADFED0D0A80EE56
:1003F000201AF0EE418AB0EE680AFFF7B7FFB0EEC0
:10040000409A00F005FEF0EE409AF0EE690AB0EE78
:10041000490A01F0BBFBBDEC048B10BD0000344366
:10042000DB0F494010B52DED068BB0EE408A9FEDF5
:10043000210AF0EE408A9FED200AB0EE409A39EE94
:10044000280AC8EE800AF0EE609A1C4880ED008A07
:1004500000211B4800F0EAF9194800F0F9F91748A3
:1004600090ED000AF0EE000A80EE201AB0EE41AAEC
:10047000B0EE4A2ADFED131A9FED131ADFED120AD0
:10048000B0EE000A114800F083F89FED112ADFED6D
:100490000D1A9FED0D1ADFED0C0AB0EE000A0D48A3
:1004A00000F076F8B0EE690A0B4800F01BF8BDECDE
:1004B000068B10BD0AD7233CCDCCCC3D08000020D4
:1004C0000C0100200050C34700000000C4000020C1
:1004D0000000C842E80000202C000020704700BF48
:1004E000FEE7000080ED000ADFED020AC0ED010A20
:1004F0007047000000000000F0EE400A90ED001A86
:10050000F7EE001A31EEC11AD0ED011A21EE211AD0
:10051000D0ED001A01EEA01AB0EE410A80ED010AFA
:10052000704700BFFEE700004020014908607047A7
:100530001018014010B5044622460121880701F039
:10054000ACFE10BD10B5044622460221480701F05A
:10055000A4FE10BD10B50446224603214FF0804092
:1005600001F09BFE10BD704710B5002807DA0A079E
:10057000140E054A00F00F031B1FD45403E00A07B2
:10058000130E024A135410BD18ED00E000E400E021
:1005900010B52DED068B0446B0EE408AB0EE609AA1
:1005A000F0EE418AF0EE619AB0EE42AA84ED008A44
:1005B00084ED019AC4ED028AC4ED039A84ED04AA85
:1005C0009FED080A84ED050A9FED060A84ED060AF0
:1005D0009FED040A84ED070A00F040FD2062BDECA7
:1005E000068B10BD0000000070B52DED068B044693
:1005F000B0EE409A00F032FD0546206A281A00EE5F
:10060000100AB8EE400ADFED570A20EE200AB0EEDD
:10061000408AB5EEC08AF1EE10FA06D9B6EE000AAD
:10062000B4EEC08AF1EE10FA03DD9FED4F0AB0EE92
:10063000408A94ED000A20EE09AA94ED070AD4ED51
:10064000010A60EE880AB6EE001A60EE810A94EDA7
:10065000051A31EE091AF0EE409A40EE819A94EDB7
:10066000040AB1EE400AB4EEE90AF1EE10FA04DD34
:1006700094ED040AB1EE400A0BE094ED040AB4EEE6
:10068000E90AF1EE10FA02D294ED040A01E0B0EEAC
:10069000690AF0EE409A94ED020AD4ED050A79EE6B
:1006A000600A20EE200AC0EE08AA3AEE290A70EE8F
:1006B0002A8A94ED040AB1EE400AB4EEE80AF1EE9B
:1006C00010FA04DD94ED040AB1EE400A0BE094ED5B
:1006D000040AB4EEE80AF1EE10FA02D294ED040A2C
:1006E00001E0B0EE680AF0EE408A94ED030AB5EE40
:1006F000C00AF1EE10FA29DDD4ED060A78EEE00A20
:1007000080EE881AB0EE410AD4ED030AF4EEC00A76
:10071000F1EE10FA08D2D4ED060A94ED031A41EE78
:10072000080AF0EE608A10E0D4ED030AF1EE600AE8
:10073000F4EEC00AF1EE10FA07DDD4ED060A94EDEE
:10074000031A41EE480AF0EE608A00BFC4ED079A32
:10075000C4ED068A84ED059A2562B0EE680ABDEC08
:10076000068B70BDBD3786356F12833A7047704770
:1007700090ED010A7047000070B52DED028B054623
:100780009FED0C0AF0EE408A00F0F0FC08EE100A33
:10079000F8EE480A80EEA80ADFED070A20EE200AEC
:1007A00010EE104A2046FFF712FD41EC100BBDEC95
:1007B000028B70BD00008045DB0FC9400269816873
:1007C000891A01EE101AB8EE411ADFED151A21EE62
:1007D000211AF0EE410AF5EEC00AF1EE10FA03D844
:1007E0009FED101AF0EE410A90ED011AD0ED031AB8
:1007F00031EE611AD0E90512891A01EE901AF8EE6D
:10080000E11A9FED092A01EE821A81EE200A90ED8D
:10081000011A80ED031A41698161816801617047A5
:10082000BD3786356F12833ADB0FC94001609FEDFB
:10083000070A80ED010A002282609FED040A80ED24
:10084000030A0261426182617047000000000000FB
:1008500010B52DED028B04462046FFF78DFF204694
:10086000FFF78AFFB0EE408AF0EE608A51EC180B79
:10087000FFF7C0FCE06000F0F1FB20612046FFF7CD
:100880007BFF2046FFF778FFB0EE408AF0EE608AEB
:1008900051EC180BFFF7AEFC606000F0DFFBA060CE
:1008A000BDEC028B10BD000010B52DED048B04468D
:1008B0002046FFF761FFB0EE409AF0EE609A51ECEF
:1008C000190BFFF797FC08EE100A00F0C7FBA060B9
:1008D00094ED010A38EE400AF0EE408AB0EEE80AE4
:1008E000DFED0B0AB4EEE00AF1EE10FA0BDDF5EEE7
:1008F000C08AF1EE10FA03DD6069401E606102E01B
:100900006069401C606184ED018ABDEC048B10BD00
:100910007CD9A04010B500F065FD03480068401C7C
:100920000149086010BD0000040000201CB54E48BD
:10093000006840F470004C4908604C48006840F082
:1009400001004A49086000BF4848006800F0020002
:100950000028F9D04548406800F00C00082866D10E
:1009600000BF0020019002E00198401C0190019816
:100970005028F9D33D4840680090009820F0F000DE
:100980000090009840F0800000903849009848603E
:100990000020019002E00198401C0190019850282D
:1009A000F9D3324840680090009820F0F0000090A1
:1009B000009840F0900000902C490098486000207A
:1009C000019002E00198401C019001985028F9D351
:1009D000264840680090009820F0F00000900098B1
:1009E00040F0A0000090214900984860002001904C
:1009F00002E00198401C019001985028F9D31B484F
:100A000040680090009820F0F0000090009840F0BE
:100A1000B00000901549009848600020019002E065
:100A20000198401C019001985028F9D300BF0F484D
:100A3000406820F003000D494860C82000F050FBDA
:100A40000A4800680A490840084908604FF41F0036
:100A500088600846006820F4802008600020486014
:100A6000C86201F0D5F91CBD88ED00E0001002401D
:100A7000FFFFF6FE00BFFEE74100080218BF04209A
:100A80000A0E18BF40F001004FF07F4232EA010128
:100A900008BF40F00200012808BF05207047000091
:100AA00010EE101A08B5444A6846B2EB410F28D937
:100AB0004FF0E640B0EB410F94BF00204FF0FF3005
:100AC00000900098002861DB60EE000A10F0010F32
:100AD00045D010F0020FDFED391A9FED391A00EE04
:100AE000E11ADFED381A40EE811A21EEA01AF0EE7D
:100AF000400A40EE010A08BFF1EE600AB0EE600A5B
:100B000008BD314B21F0004293423CD911F0004F17
:100B1000DFED2E0A20EE201ADFED2D0A19BF31EE8F
:100B2000601A71EE200A31EE201A71EE600ABDEEF5
:100B3000E01A11EE100A9FED271A00F0030000EEF4
:100B4000C10A9FED251A009000EEC10A9FED231AFD
:100B500000EEC10A9FED221A00EEC10AB1E79FED37
:100B6000211A9FED210A10F0020F00EE810A9FED7D
:100B70001F1A00EE801AB7EE000A00EE810A18BFB5
:100B8000B1EE400A08BD00F083F99AE710EE100AB2
:100B90004000B0F17F4F3CBFB7EE000A08BD07D15F
:100BA0004FF0010000F02EFABDE8084000F060B9F7
:100BB000BDE8084000F059B9B61F927E336D4C393C
:100BC000DA82083CA0AA2ABE490E494683F9223F90
:100BD0000000004B0000C93F00A0FD390020A233F7
:100BE0001A61342CB93AB2BACA9F2A3DDDFFFFBE62
:100BF00010B52DED028BF0EE408A18EE900AB0EEA3
:100C0000608A20F00040C0F1FF40C00F07D118EE0D
:100C1000100A20F00040C0F1FF40C00F2BD018EEAA
:100C2000101A18EE900AFFF757FB00EE100A10EEAC
:100C3000100A6FEAD05010F0FF0F04BFBDEC028B1A
:100C400010BD18EE900A00F0004110EE100A00F0FE
:100C50000040814204BFBDEC028B10BD18EE101A9B
:100C600010EE100ABDEC028B61F31E0000EE900A3C
:100C700030EE600A10BD18EE900A4FF07F41B1EBE4
:100C8000400F1CBF18EE100A5FEA4000C7D10120D8
:100C900000F0B8F9BDEC028BBDE8104000F0E8B8F8
:100CA00000B510EE101A2DED028B81B0524A684645
:100CB000B2EB410F2ED94FF0E640B0EB410F94BF9D
:100CC00000204FF0FF3000900098B0EE408A0028DE
:100CD0006ADB10F0010F4BD068EE080A9FED471A4F
:100CE0009FED470A00EE810A9FED461A10F0020FB1
:100CF00000EE801AB7EE000A00EE810A02BF01B0D2
:100D0000BDEC028B00BD00BF01B0B1EE400ABDECEE
:100D1000028B00BD3C4B21F00042934241D911F0BF
:100D2000004FDFED3A0A20EE201ADFED390A19BF35
:100D300031EE601A71EE200A31EE201A71EE600A6F
:100D4000BDEEE01A11EE100A9FED321A00F003001A
:100D500000EEC10A9FED301A009000EEC10A9FED2F
:100D60002F1A00EEC10A9FED2E1A00EEC10AABE762
:100D700028EE080A9FED2B1ADFED2B0A10F0020F68
:100D800040EE410A9FED291A00EE201A61EE000A9A
:100D9000B0EE480A08EE200AB6D101B0BDEC028BD5
:100DA00000BD00F075F88FE718EE100A4000B0F1B2
:100DB0007F4F0DD218EE100AFFF75EFE042808BF21
:100DC00000F05EF8B0EE480A01B0BDEC028B00BD49
:100DD00009D1012000F016F901B0BDEC028B5DF8DD
:100DE00004EB00F045B801B0B0EE480ABDEC028B50
:100DF0005DF804EB00F039B8B61F927EB93AB2BA8A
:100E0000CA9F2A3DDDFFFFBE490E494683F9223FB6
:100E10000000004B0000C93F00A0FD390020A233B4
:100E20001A61342C336D4C39DA82083CA0AA2ABEF0
:100E300010B52DED028BB1EEC08A18EE100A20F02D
:100E40000040C0F1FF40C00F0AD010EE100A20F0A1
:100E50000040C0F1FF40C00F04BF012000F0D2F8F5
:100E6000B0EE480ABDEC028B10BD30EE000A7047B0
:100E7000DFED020A80EEA00A7047000000000000CB
:100E80009FED020A20EE000A7047000000000010EB
:100E90002DE9F0014FF07F42B2EB410F9FBF4FF0C1
:100EA000FF310160BDE8F00170474FF0004242EAB7
:100EB0000123C1F3C752783A551112F01F0C434C6D
:100EC000CCF120067C44C1F3C752A2F178024FEA6C
:100ED000621204EB820254F8254008BFD2E90156A1
:100EE00012D0556804FA0CF425FA06F73C439768CB
:100EF00005FA0CF527FA06F8D26807FA0CFCF2405E
:100F000045EA08054CEA0206A4FB034CA5FB035284
:100F1000A6FB03631D449D4234BF0126002613191E
:100F2000334416B1934202D903E0934201D2012225
:100F300000E00022624402F1200C9206DC0C42EA3E
:100F4000443200EE102A5B03DFED210AF8EEC01AEE
:100F500000EE103A4FEA9C1C11F0004FB8EE400A28
:100F6000C0F800C020EE201A00EE105ADFED190A7A
:100F7000B8EE400A20EE200A71EE810A70EE800A77
:100F800010EE902A02F500626FF30B0200EE902A39
:100F900070EEE11A31EEC11ADFED101A30EE411A8F
:100FA0009FED0D0A20EE800A01EE210A9FED0C1A3A
:100FB00000EE810A04BFBDE8F0017047CCF180511A
:100FC0000160BDE8F001B1EE400A7047681700000B
:100FD000000000360000802C22AAFD29DB0FC92F5B
:100FE0000000C92F02E008C8121F08C1002AFAD168
:100FF00070477047002001E001C1121F002AFBD199
:10100000704700000149086070470000C0000020E0
:1010100010B52DED028B0D48FFF7AAFB0C480068B8
:101020000C490968484300EE900AB8EEE01A0A48F5
:10103000D0ED000A51EE000AB0EE608AB0EE480A28
:1010400000F030F8BDEC028B10BD00000C01002058
:101050002800002024000020200000202DE9F0417D
:1010600000BF0E4804684FF0E02085690B48006817
:101070008442F6D14FF47A7004FB00F80848401B14
:101080004FF47A71A0FB01600146054A0023304607
:10109000FFF76CF880444046BDE8F0810400002072
:1010A0004019010010B52DED028BF0EE408ADFED06
:1010B0000B0AB0EE680AFFF79BFDB0EE408AB5EE72
:1010C000C08AF1EE10FA04DBB0EE480ABDEC028BE8
:1010D00010BD9FED020A38EE000AF7E7DB0FC940AA
:1010E00008B50021009102E00099491C009100EB35
:1010F0008001009AB2EB410FF6D308BD10B500F0A5
:1011000061F90446C4F3401010BD000010B540F270
:10111000036000F029FC40F2157000F025FC40232C
:1011200003221C210E4800F0DBF9802303221C213E
:101130000B4800F0D5F900220A490B4800F03EFAAE
:1011400000231A461946084800F011FB064800F033
:10115000DCFA4FF48061044800F020FA10BD000072
:10116000000C014000350C000054004010B500F0A8
:1011700003F80446204610BD10B50C2000F080F89E
:1011800010BD000070B50446002500BF40F20161AB
:101190003A4800F0D3FA0028F8D1384800F0F5FAC0
:1011A00000BF4FF4A061354800F0C8FA0028F8D01D
:1011B0006FF001026C21314800F0CFFA00BF40F21D
:1011C00001512E4800F0BAFA0028F8D040F201513F
:1011D0002A4800F09FFA00BF40F20751274800F06C
:1011E000ADFA0128F8D12146244800F08BFA00BF5F
:1011F00040F20251214800F0A1FA0028F8D01F481F
:1012000000F0C3FA00BF4FF4A0611C4800F096FA4A
:101210000028F8D001226C21184800F09EFA002125
:10122000164800F0BBF900BF40F20151134800F02E
:1012300085FA0028F8D040F20151104800F06AFA0F
:101240000E4800F0A7FA00BF40F206510B4800F02C
:1012500075FA0028F8D0094800F050FA054600BF9A
:101260000648006800F400700028F9D14FF480614E
:10127000024800F093F9284670BD00000054004079
:101280002DE9F041064600BF40F201614C4800F0F4
:1012900055FA0028F8D14FF40061494800F086F96A
:1012A000474800F072FA00BF4FF4A061444800F0D4
:1012B00045FA0028F8D06FF001026C21404800F098
:1012C0004CFA00BF40F201513D4800F037FA0028C7
:1012D000F8D040F201513A4800F01CFA00BF40F249
:1012E0000751374800F02AFA0128F8D1344800F0B5
:1012F0000CFA3146324800F005FA00BF40F20251C4
:101300002F4800F01BFA0028F8D02D4800F03DFAD5
:1013100000BF4FF4A0612A4800F010FA0028F8D06E
:1013200001226C21264800F018FA0021244800F020
:1013300035F900BF40F20151214800F0FFF90028C3
:10134000F8D040F201511E4800F0E4F900BF40F22D
:1013500002511B4800F0F2F90028F8D0184800F0BC
:1013600019FA00BF40F20651154800F0E7F90028CD
:10137000F8D0134800F0C2F9044600BF40F206510D
:101380000F4800F0DBF90028F8D00D4800F0B6F95E
:10139000054600BF0A48006800F400700028F9D133
:1013A0004FF48061064800F0F9F80021044800F08D
:1013B000FDF845EA0427C7F30B00BDE8F081000003
:1013C0000054004010B50B20FFF7DCFE10BD0000FC
:1013D0000349086000BF024909680029FBD1704732
:1013E000000000200448006820B103480068401E47
:1013F00001490860704700000000002070B50546F4
:1014000000241D48854200D103E01C48854200D1DC
:1014100001241B4931F8140000F0A6FA194931F8EB
:10142000140000F0A1FA184951F82430174951F876
:1014300024000322182100F053F8154951F82430F4
:10144000124951F824000322042100F049F82846EB
:1014500001F07EF84FF4E131284601F031F8042123
:10146000284601F0D1F80821284601F0D7F828468F
:1014700001F0B6F870BD00000038014000440040A3
:101480007C00002060000020640000207400002028
:101490006C00002010B540F2026000F065FA40F2E6
:1014A000036000F061FA40F2066000F05DFA4FF46C
:1014B000E06303221821084800F012F80E230322EB
:1014C0001821054800F00CF8FC23032210210348E2
:1014D00000F006F810BD00000008014000180140AF
:1014E000F0B5044616460025002201F00F0501F074
:1014F000100747B1042E05D145F00305E76B1F43E4
:10150000E76300E0354300201EE0012787401F40CD
:10151000C7B122684FEA800C0F2707FA0CF7BA43CD
:10152000870005FA07F73A43282904D101278740A5
:101530001F40676105E0482903D1012787401F400C
:1015400027612260471CB8B20828DED3082022E0B9
:10155000012787401F40E7B16268A0F108074FEA02
:10156000870C0F2707FA0CF7BA43A0F10807BF0052
:1015700005FA07F73A43282904D1012787401F407D
:10158000676105E0482903D1012787401F40276193
:101590006260471CB8B21028DAD3F0BD0A460021B9
:1015A000016821F480611143016070470A460021FF
:1015B000016821F400611143016070472DE9F05F7B
:1015C00004460E4692460EB900BFFEE7022000F028
:1015D0001FF907464648B7FBF0F8B8F13C0F01D3B6
:1015E0004FF03C08D4F804B02BF07F0B4BEA080B0B
:1015F000C4F804B03F4886421ED83D48B7FBF0F01F
:1016000000F10109B9F13C0F02D33C20206207E050
:10161000B9F1020F02D80220206201E0C4F8209044
:101620007000B7FBF0F5042D00D20425E069C5F386
:101630000B010843E06158E02F4886422CD84FF454
:10164000967008FB00F04FF47A71B0FBF1F0401C8B
:101650002062BAF1000F08D106EB4600B7FBF0F5A7
:10166000E06920F48040E06109E006EBC60000EB91
:101670000610B7FBF0F5E06940F48040E061C5F387
:101680000B0008B945F00105E06940F40040E06155
:10169000E0692843E06128E0C8EB0810C0004FF47F
:1016A0007A71B0FBF1F0401C2062BAF1000F08D152
:1016B00006EB4600B7FBF0F5E06920F48040E061FE
:1016C00009E006EBC60000EB0610B7FBF0F5E06999
:1016D00040F48040E061E06940F40040E061E0698E
:1016E0002843E0610120C4F89000BDE8F09F0000AD
:1016F00040420F00A0860100801A060001460869DA
:10170000C0B27047CAB202617047016841F001017E
:101710000160704710B540F20152914202D1426916
:1017200082690AE000EB9112126801F01F040123A4
:10173000A3409A4300EB91131A6010BD10B5024606
:1017400002EB9110006801F01F040123A340184030
:1017500008B1012010BD0020FCE712F1020F02D1F8
:1017600021F0010101E041F001010161704730B554
:101770000C460021016821F0020121430160C3F3FE
:10178000090342EA0305856030BD016841F48071B8
:1017900001607047016841F400710160704700000A
:1017A00000F03AFBFFF776FE1448FFF727FEFEF73E
:1017B000BBFEFFF7ABFCC820FFF70AFEFFF79EFC5D
:1017C00000F0ABFD00BF06210C4800F00EFF002822
:1017D000F9D0DFED0B1A9FED0A1ADFED0A0A9FED33
:1017E0000A0AFEF7B7FDB2EE080AFEF71BFE03E099
:1017F0009FED060AFEF7ECFDFAE700000038014015
:1018000000000000CDCCCC3D0AD7233C00007A4438
:101810002DE9F04F8CB0074600200A904AA090E8CE
:10182000004CC068CDE905BECDF810A007900FF2BE
:101830001C1ADAE9000ACDE9020A0FF2101ADAE9F5
:10184000000ACDE9000A44484068C0F381000B90CB
:101850000B9820B1012804D002283FD103E03F4A71
:101860003EE03E4A3CE03C48406800F4803CBCF529
:10187000803F12D13848C06A00F08048B8F1000FAC
:1018800001D1364B00E0364B3348406800F4003954
:10189000B9F5003F02D15B0800E0324B2E484068AA
:1018A000C0F383412C48406800F0006008B141F06B
:1018B00010012948406800F0804008B141F0200143
:1018C0000F2901D2891C06E00F2903D33E2901D834
:1018D000491C00E03F2103FB01F201E01F4A00BF69
:1018E00000BF1D484068C0F3031504A8465D22FAF6
:1018F00006F419484068C0F3022502A8465D24FAA0
:1019000006F0099014484068C0F3C2251DF8056030
:1019100024FA06F0089037B1012F06D0022F06D026
:10192000032F0AD106E00A9208E00A9406E009981B
:101930000A9003E008980A9000E000BF00BF0A98F0
:101940000CB0BDE8F08F00000000000000000000B7
:1019500001020304060708090010024000127A0081
:10196000006CDC0200093D00064A02EB9011096898
:1019700000F01F0301229A401143024B03EB901227
:101980001160704700100240064A02EB901109688E
:1019900000F01F0301229A409143024B03EB901287
:1019A0001160704700100240064A02EB901109686E
:1019B00000F01F0301229A401143024B03EB9012E7
:1019C000116070470010024010B52DED068BB0EE8F
:1019D000408AF0EE608AB0EE419AB5EEC08AF1EE30
:1019E00010FA02D29FED660A0CE0664890ED000AFC
:1019F000B4EEC08AF1EE10FA02DD90ED000A01E0CB
:101A0000B0EE480AB0EE408AF5EEC08AF1EE10FA68
:101A100002D29FED5B0A0CE05A4890ED000AF4EE0A
:101A2000C08AF1EE10FA02DD90ED000A01E0B0EE9E
:101A3000680AF0EE408AB5EEC09AF1EE10FA02D2D2
:101A40009FED4F0A0CE04F4890ED000AB4EEC09AAB
:101A5000F1EE10FA02DD90ED000A01E0B0EE490A65
:101A6000B0EE409A474890ED000AC8EE000AF5EE45
:101A7000C00AF1EE10FA02D29FED410A13E041488C
:101A800090ED000AC8EE000AB7EE000AF4EEC00AB4
:101A9000F1EE10FA02DDB7EE000A04E03948D0EDAD
:101AA000000A88EE200AF0EE409A364890ED000ACF
:101AB000C8EE800AF5EEC00AF1EE10FA02D29FEDF0
:101AC000300A13E02F48D0ED000A88EEA00AF7EEA6
:101AD000000AB4EEE00AF1EE10FA02DDB7EE000AF9
:101AE00004E02848D0ED000A88EEA00AB0EE40AA33
:101AF000244890ED000AC9EE000AF5EEC00AF1EEA6
:101B000010FA02D29FED1E0A13E01E48D0ED000A23
:101B100089EE200AF7EE000AB4EEE00AF1EE10FAC0
:101B200002DDB7EE000A04E01648D0ED000A89EEA7
:101B3000200AF0EE40AA9FED140A29EE800ABCEEBE
:101B4000C00A10EE101A88B2FEF7F4FC9FED0E0AE0
:101B50002AEE000ABCEEC00A10EE101A88B2FEF798
:101B6000F1FC9FED090A2AEE800ABCEEC00A10EED5
:101B7000101A88B2FEF7EEFCBDEC068B10BD00001B
:101B8000000000000800002000007F4310B52DED8C
:101B9000028BB0EE408AF0EE608A4F48FEF784FE7A
:101BA0004E4890ED000AF1EE400AB0EE001A80EEC9
:101BB000810AB4EEC80AF1EE10FA08DD90ED000AD1
:101BC000F1EE400AB0EE001A80EE810A14E04348BC
:101BD000D0ED000AB0EE001A80EE810AB4EEC80A19
:101BE000F1EE10FA06D2D0ED000AB0EE001A80EE47
:101BF000810A01E0B0EE480AB0EE408AB0EE680A11
:101C0000FFF750FAF0EE408AB0EE680AFFF748F8A6
:101C1000F1EE480A20EE200A314880ED000AB0EECD
:101C2000680AFEF73DFF20EE080A2E4880ED000A04
:101C30002A48D0ED000AB0EE001A80EE810A28484A
:101C4000D0ED000A30EE200A274880ED000AB0EE01
:101C5000080AFFF7EDF8234890ED001A2048D0ED70
:101C6000000A50EE010AB0EE001A80EE810A1B480D
:101C7000D0ED000AB0EE001AC0EE811A30EE210A53
:101C80001A4880ED000AB0EE080AFFF7D1F81548AF
:101C900090ED001A1248D0ED000A50EE410AB0EE65
:101CA000001A80EE810A0D48D0ED000AB0EE001A4D
:101CB000C0EE811A30EE210A0D4880ED000A90ED49
:101CC000001A0A48D0ED000A074890ED000AFFF715
:101CD0007BFEBDEC028B10BD0C0100200800002033
:101CE0000C0000201000002014000020180000202C
:101CF0001C00002008B500200021414A126842F46F
:101D000080323F4B1A6000BF401C3D4A126802F40B
:101D1000003119B94FF6FF729042F5D1384A126876
:101D200002F400320AB900BFFEE7354AD26942F038
:101D30008052334BDA61334A126842F44042314BED
:101D40001A602F4A52682E4B5A601A4652685A60DF
:101D50001A46526842F480625A601A46526822F467
:101D600040325A601A46526842F440325A601A466B
:101D70005268254B1A40224B5A601A465268234B30
:101D80001A431F4B5A601A46126842F080721A605A
:101D900000BF1B4A126802F00072002AF9D0194AEB
:101DA000126842F48032174B1A6000BF154A52681D
:101DB00002F48032002AF9D0124A126842F400324A
:101DC000104B1A6000BF0F4A526802F40032002A1A
:101DD000F9D00B4A52680092009A22F00302009256
:101DE000009A42F002020092054B009A5A6000BF2E
:101DF000034A526802F00802002AF9D008BD000028
:101E00000010024000700040FFFFC3B7000034081C
:101E100010B5FFF76FFF10BD10B5124800684FF402
:101E20007A71B0FBF1F4601EB0F1807F01D3012024
:101E30000FE0601E4FF0E02148610F214FF0FF30AE
:101E4000FEF792FB00204FF0E02188610720086137
:101E5000002008B100BFFEE70021481EFEF784FB0A
:101E600010BD00003C00002000B587B040F20B60C0
:101E7000FFF77AFD364800F057FA7720ADF80000FA
:101E80000020ADF80200ADF804004FF4807002901D
:101E90000020ADF806008DF80C0069462C4800F0D3
:101EA000B7FA0120ADF810000020ADF81200ADF82F
:101EB0001400ADF81600ADF81800ADF81A0004AA29
:101EC0000021234800F0C6F804AA0121204800F0B0
:101ED000C1F804AA02211E4800F0BCF8FA22002131
:101EE0001B4800F0DAF9FA220121194800F0D5F96F
:101EF000FA220221164800F0D0F96022002114488D
:101F000000F09EF960220121114800F099F9602249
:101F100002210F4800F094F9002211460C4800F00D
:101F2000CFF9002201210A4800F0CAF9002202215B
:101F3000074800F0C5F90121054800F0B5FA04484A
:101F400000F082F8024800F05DFA07B000BD000022
:101F5000002C014000B587B04FF4E060FFF704FDAE
:101F60004FF0804000F0E0F97720ADF8000000204D
:101F7000ADF80200ADF804004FF4FA7002900020B2
:101F8000ADF806008DF80C0069464FF0804000F077
:101F90003FFA0120ADF810000020ADF81200ADF8B6
:101FA0001400ADF81600ADF81800ADF81A0004AA38
:101FB00003214FF0804000F04DF804AA012188076A
:101FC00000F048F804AA0221480700F043F8FA227A
:101FD0000321500700F061F9FA220121880700F07F
:101FE0005CF9FA220221480700F057F96022032128
:101FF0004FF0804000F024F960220121880700F0B2
:102000001FF960220221480700F01AF9002203217B
:102010004FF0804000F054F900220121880700F0C1
:102020004FF900220221480700F04AF901218807F0
:1020300000F03AFA4FF0804000F006F84FF0804090
:1020400000F0E0F907B000BD016841F080010160D7
:102050007047000010B531B101293FD002297DD071
:1020600003297CD1BFE0036A23F001030362836983
:1020700023F003038361036A148823430362036A22
:1020800023F002030362036A9488234303626A4BCA
:10209000984202D0694B98421FD1036A23F004038F
:1020A0000362036A548823430362036A23F008032C
:1020B0000362036AD48823430362436823F4807372
:1020C00043604368148923434360436823F40073E7
:1020D00043604368548923434360ABE0036A23F0C1
:1020E00010030362836923F440738361036A1488D5
:1020F00043EA04130362036A23F020030362036AC2
:10210000948843EA041303624B4B984202D04B4B32
:10211000984226D1036A23F040030362036A54887D
:1021200043EA04130362036A23F080030362036A31
:10213000D48843EA04130362436823F48063436052
:102140004368148943EA84034360436823F40063CB
:1021500043604368548943EA840301E002E068E095
:10216000436067E0036A23F480730362C36923F06A
:102170000303C361036A148843EA04230362036A06
:1021800023F400730362036A948843EA042303621E
:10219000294B984202D0294B984223D1036A23F459
:1021A00080630362036A548843EA04230362036A78
:1021B00023F400630362036AD48843EA04230362BE
:1021C000436823F4805343604368148943EA04134B
:1021D0004360436823F4005343604368548943EAEF
:1021E0000413436026E0036A23F480530362C36947
:1021F00023F44073C361036A148843EA043303621F
:10220000036A23F400530362036A948843EA0433A5
:102210000362094B984202D0084B984208D14368A8
:1022200023F4804343604368148943EA8413436082
:1022300000E000BF00BF10BD002C01400034014091
:1022400031B101290CD0022913D0032922D118E081
:10225000836923F0700383618369134383611AE008
:10226000836923F4E0438361836943EA0223836142
:1022700011E0C36923F07003C361C3691343C361F1
:1022800009E0C36923F4E043C361C36943EA02235D
:10229000C36100E000BF00BF704731B1012906D023
:1022A000022906D0032908D105E0426306E08263D3
:1022B00004E0C26302E0026400E000BF00BF7047B8
:1022C00031B101290CD0022913D0032922D118E001
:1022D000836923F0080383618369134383611AE0F0
:1022E000836923F400638361836943EA0223836182
:1022F00011E0C36923F00803C361C3691343C361D9
:1023000009E0C36923F40063C361C36943EA02239C
:10231000C36100E000BF00BF704710B5FFF7A4FD28
:10232000FFF718FE10BD000010B504463349601ACF
:102330008C4244D00CDCB4F1804F1CD03048204497
:1023400010B3B0F5806F28D0B0F5006F52D12DE0FA
:10235000B0F5806F3CD0B0F58E3F03D0B0F5923F22
:1023600048D13EE040F20B30FFF71EFB40F20B304D
:10237000FFF70AFB3FE04FF48060FFF715FB4FF4D7
:102380008060FFF701FB36E040F20140FFF70CFBF5
:1023900040F20140FFF7F8FA2DE040F20240FFF76B
:1023A00003FB40F20240FFF7EFFA24E040F2034063
:1023B000FFF7FAFA40F20340FFF7E6FA1BE040F2BB
:1023C0000440FFF7F1FA40F20440FFF7DDFA12E0B3
:1023D00040F20540FFF7E8FA40F20540FFF7D4FA73
:1023E00009E040F20D30FFF7DFFA40F20D30FFF761
:1023F000CBFA00E000BF00BF10BD0000001000409D
:1024000000FCFFBF016841F001010160704700005E
:102410000A8882621D4A90420ED0B0F1804F0BD0E4
:102420001B4A904208D01B4A904205D01A4A90425B
:1024300002D01A4A90420BD1026822F07002026068
:1024400002684B881A43026002688B881A43026054
:102450008A68C262124A90420AD0124A904207D059
:10246000026822F4407202600268CB881A4302605C
:10247000064A904202D0094A904201D10A7B026387
:10248000426942F00102426170470000002C0140A5
:102490000004004000080040000C004000340140EF
:1024A0000010004000140040012904D1426C42F4A5
:1024B0000042426403E0426C22F4004242647047EE
:1024C0002DE9F04704460D460027B846B9460026D8
:1024D0001D49601A8C421CD006DC1C48204470B197
:1024E000B0F5806F1FD10FE0B0F5806F16D0B0F55A
:1024F0006C4F18D10320FFF78BF9074614E0022038
:10250000FFF786F907460FE00220FFF781F907463B
:102510000AE00220FFF77CF9074605E00220FFF7FA
:1025200077F9074600E000BF00BF07EB5500B0FB9E
:10253000F5F64FF6F07006EA000806F00F0948EAD3
:102540000900A060BDE8F087004C004000BCFFBF60
:1025500010B504462049601A8C4228D006DC1F487A
:10256000204490B1B0F5806F33D117E0B0F5806FA3
:1025700026D0B0F56C4F2CD140F20E30FFF714FA94
:1025800040F20E30FFF700FA24E040F21140FFF76E
:102590000BFA40F21140FFF7F7F91BE040F212404E
:1025A000FFF702FA40F21240FFF7EEF912E040F2B4
:1025B0001340FFF7F9F940F21340FFF7E5F909E09E
:1025C00040F21440FFF7F0F940F21440FFF7DCF955
:1025D00000E000BF00BF10BD004C004000BCFFBFCA
:1025E000C16841F40051C160704710B5024602EB6A
:1025F0009110006801F01F040123A340184008B1A6
:10260000012010BD0020FCE7C26822F00402C26075
:10261000C26801F004031A43C2607047C26822F026
:102620000802C260C26801F008031A43C260704722
:10263000000000006E83F9A22915444ED15727FCF3
:10264000C0DD34F5999562DB4190433CAB6351FEAC
:102650007026000800000020C4000000E40F0008FD
:1026600034270008C400002064050000F40F0008AF
:10267000000000000000000000000000000000005A
:10268000000000000000000000000000000000004A
:102690000000000007000000010000000000000032
:1026A000000000000000000000000000000E2707EE
:1026B00000100140001001400018014000180140C6
:1026C0000100000004000000010000000200000002
:1026D0000E061107000200000400000000040000C4
:1026E0000800000000080140000801400206020640
:1026F0000406040606060606000801400010014014
:10270000000C01400100000000200000004000001B
:10271000020604060306000001000000002000007D
:1027200000400000000201000D0E062828000000F5
:0427300000000000A5
:0400000508000131BD
:00000001FF
